:020000040800F2
:1000000010050020693101088D3201089132010884
:1000100095320108993201089D3201080000000064
:10002000000000000000000000000000F54600088D
:10003000A1320108000000009D460008ED150108EE
:10004000A5320108A9320108AD320108B132010818
:10005000B5320108B9320108BD320108C1320108C8
:10006000C5320108C9320108CD320108D132010878
:10007000D5320108D9320108F5150108FF1501082C
:10008000DD32010809160108E1320108E5320108F4
:10009000E9320108ED320108F1320108F5320108B8
:1000A000F932010813160108FD3201080133010875
:1000B00005330108093301080D3301081133010824
:1000C00015330108193301081D33010821330108D4
:1000D000253301081D1601082D1601083D160108DB
:1000E000293301082D330108313301083533010864
:1000F000393301083D330108413301084533010814
:10010000493301084D1601084D33010851330108E8
:100110005716010855330108593301085D330108AA
:100120006133010865330108693301086D33010843
:100130007133010800000000000000007533010861
:10014000793301087D3301088133010885330108C3
:100150008933010867160108711601087B1601082A
:100160008D33010891330108953301089933010853
:100170009D330108A13301080000000000000000C9
:10018000A5330108A933010830B403000C001500A1
:100190006A1E002D04D025781D70641C5B1CF6E7D8
:1001A00030BC704710B403001400621E002C02D053
:1001B00019705B1CF8E710BC704770B403001C009A
:1001C0000D0000201600721E002E06D020782E781A
:1001D000801B6D1C641C0028F4D070BC7047027832
:1001E000002A04D002788A4201D0401CF7E7007848
:1001F000704710B50400D4F80C0202F0C4FB10BD27
:1002000038B504000D00002C0FD0EDB20C2D0CD031
:10021000EDB20B2D09D0EDB2092D06D0EDB20F2DA8
:1002200003D0D4F80C0202F0BCFB31BD30B4002482
:1002300023001A00002A26D1824C0C2505FB02441B
:100240002468002C1BD07F4C0C2505FB024424683D
:10025000D0F80052AC4214D17A4C0C2505FB024474
:100260006468D0F80852AC420BD1764C0C2505FBE3
:1002700002442489B0F80652AC4202D103E00124C2
:100280002300521CD6E7012A08D1002B01D10229F4
:1002900001D1002000E01220C0B20DE0002907D1FA
:1002A00068480C2101FB02004089B0F5807F01D134
:1002B000102000E00020C0B230BC704700210800D0
:1002C000002808D15F490C2202FB001109680029AF
:1002D00001D0401CF4E7012801D1002000E00120FA
:1002E000704730B4020000200300002B1CD1554899
:1002F0000C2404FB03000068D2F80042A04211D194
:1003000050480C2404FB03004068D2F80842A04285
:1003100008D14C480C2404FB03000089B2F80642C3
:10032000A04201D05B1CE0E7012B2BD10020030091
:10033000002B08D143480C2404FB0300006800286C
:1003400001D05B1CF4E7012B01D1002036E0D2F88C
:1003500000023C4C0C2505FB03442060D2F8080247
:10036000384C0C2505FB03446060B2F80602354C9E
:100370000C2505FB034420810020324C0C2505FB95
:1003800003446081002908D02E480C2404FB03009C
:100390004089002801D0002010E0002902D04FF44D
:1003A000807005E027480C2404FB03004089401CB2
:1003B000244C0C2505FB03446081581C30BC70475D
:1003C00030B40100491E002920D11E4B0C2404FB2F
:1003D00001335B891A0092B2B2F5807F01D100230C
:1003E0001A0092B2002A00D0521E164B0C2404FBB5
:1003F00001335A8192B2002A05D10023114C0C25F9
:1004000005FB014423600023180001E002231800CB
:10041000C0B230BC704710B40022110000290ED1C8
:10042000084A0C2303FB01221268824205D10022F4
:10043000044B0C2404FB01331A60491CEEE710BC8A
:100440007047000004760120F8B50400002794F8F6
:100450000402002829D0D4F83002050001232A0024
:10046000210094F8010202F0F7FA002802D00120DE
:1004700007001AE0002084F80402D4F82402281AA5
:10048000D4F81C12884210D294F803020600022EFF
:100490000BD3D4F81C02451901232A00210094F83B
:1004A000010202F0D9FA761EF1E73800C0B2F2BDBF
:1004B00070B504000D000026D4F83002854216D035
:1004C0002000FFF7C1FF0600F6B2002E0FD1012376
:1004D0002A00210094F8010202F0A2FA002804D0B8
:1004E0005FF0FF30050001200600C4F830523000F4
:1004F000C0B270BD38B504002000FFF7A5FF0500AD
:10050000EDB2002D69D194F8000203285BD194F874
:100510000502012857D14FF4007200212000FFF797
:1005200041FE552084F8FE01AA2084F8FF015220E4
:100530002070522060706120A0704120E070722015
:1005400084F8E401722084F8E501412084F8E60192
:10055000612084F8E701D4F8140284F8E801D4F8A3
:10056000140280B2000A84F8E901D4F81402000CE5
:1005700084F8EA01D4F81402000E84F8EB01D4F8F0
:10058000100284F8EC01D4F8100280B2000A84F85A
:10059000ED01D4F81002000C84F8EE01D4F810023A
:1005A000000E84F8EF01D4F82002401CC4F8300299
:1005B0000123D4F83022210094F8010202F04CFA11
:1005C000002084F805020022002194F8010202F0C4
:1005D0005FFA002801D0012005002800C0B232BD1A
:1005E0000200891ED2F81802801E814201D3002029
:1005F00005E092F80202D2F82C2200FB012070479D
:100600002DE9F84304000D00022D03D3D4F818029D
:10061000854202D3012081467DE05FF0FF308146B4
:1006200094F80002012804D073D303284DD031D3AD
:100630006FE02F0017EB5707D4F8240210EB572177
:100640002000FFF735FF002865D14FF40070B7FB9D
:10065000F0F101FB1071085D06007F1CD4F8240244
:1006600010EB57212000FFF723FF002853D14FF450
:100670000070B7FBF0F101FB1071085D56EA00262F
:10068000E80702D55FEA161903E05FEA06595FEA58
:10069000195940E0D4F8240210EB15212000FFF78F
:1006A00007FF002837D168004FF40071B0FBF1F26A
:1006B00002FB11021019804698F8010098F800100A
:1006C00051EA002080B2814625E0D4F8240210EBE4
:1006D000D5112000FFF7ECFE00281CD1A8004FF434
:1006E0000071B0FBF1F202FB11021019804698F87C
:1006F000030098F80210090451EA006098F801100C
:1007000050EA012098F800100843000100098146D2
:1007100001E0012081464846BDE8F2832DE9F84317
:1007200004000D001600022D03D3D4F818028542F0
:1007300002D302208146A9E094F80002012805D0E6
:10074000C0F0A280032872D050D39DE02F0017EB99
:100750005707D4F8240210EB57212000FFF7A8FE1A
:1007600081465FFA89F9B9F1000F40F08F804FF4AC
:100770000070B7FBF0F101FB1071081980467F1C77
:10078000E80706D598F8000010F00F0050EA0610B0
:1007900000E0300088F80000012084F80402D4F85A
:1007A000240210EB57212000FFF782FE81465FFAFA
:1007B00089F9B9F1000F69D14FF40070B7FBF0F17E
:1007C00001FB107108198046E80701D5300907E0E0
:1007D00098F8000010F0F000310A11F00F01084302
:1007E00088F80000012084F804024FE0D4F82402C5
:1007F00010EB15212000FFF75BFE81465FFA89F9B7
:10080000B9F1000F42D168004FF40071B0FBF1F272
:1008100002FB11021019804688F80060300080B297
:10082000000A88F80100012084F804022EE0D4F8C0
:10083000240210EBD5112000FFF73AFE81465FFA43
:1008400089F9B9F1000F21D1A8004FF40071B0FB74
:10085000F1F202FB11021019804698F8030000061D
:1008600010F07040064388F80060300080B2000A43
:1008700088F80100300C88F80200300E88F8030078
:10088000012084F8040201E0022081464846C0B2FB
:10089000BDE8F283F8B504000D00022D03D3D4F8AF
:1008A0001802854202D30220060032E00020060032
:1008B000D4F8180285422CD229002000FFF7A0FEB0
:1008C0000700002F25D0012F02D10220060020E0D2
:1008D00017F1010F02D1012006001AE000222900C1
:1008E0002000FFF71BFF0600F6B2002E11D1D4F84E
:1008F000140210F1010F0AD0D4F81402401CC4F8FD
:10090000140294F8050250F0010084F805023D003D
:10091000CEE73000C0B2F2BD2DE9F84304000D006F
:10092000002D0CD1D4F810028046B8F1000F03D08E
:10093000D4F81802804517D30120804614E029001E
:100940002000FFF75DFE0600022E01D2012060E0CC
:1009500016F1010F01D130005BE0D4F81802864295
:1009600001D2300055E0A84647467F1CD4F8180253
:10097000874205D302200700B84501D2002048E095
:1009800039002000FFF73CFE0600002E0CD17FF05E
:10099000704239002000FFF7C1FE81465FFA89F9F5
:1009A000B9F1000F13D10AE016F1010F01D0012EA9
:1009B00001D130002DE04745D7D1002029E0002D9E
:1009C00005D03A0029002000FFF7A8FE81465FFA13
:1009D00089F9B9F1000F12D1C4F81072D4F81402D9
:1009E00010F1010F14D0D4F81402401EC4F8140200
:1009F00094F8050250F0010084F8050208E05FFA5F
:100A000089F9B9F1010F02D15FF0FF3700E001274A
:100A10003800BDE8F28370B40200D2F82402001D51
:100A20000500480AD2F8006296F80262B0FBF6F0C0
:100A30000300286804002D1D002C01D1002007E0D0
:100A4000A34202D22868C01802E01B1B2D1DF0E74C
:100A500070BC70472DE9F04104000D00A4F8065267
:100A6000D4F808020600012E05D0D4F80002D0F810
:100A70001802864201D3022058E0002E0AD1D4F891
:100A8000000290F80002032804D1D4F80002D0F844
:100A900028020600002E0DD1D4F80002B0F808029A
:100AA000854201D3022041E0D4F80002D0F82802A8
:100AB000070025E0D4F8000290F802020001804609
:100AC000454517D33100D4F80002FFF799FD060021
:100AD00016F1010F01D1012028E0022E05D3D4F830
:100AE0000002D0F81802864201D302201EE0B5EBC6
:100AF0000805E5E73100D4F80002FFF771FD0700B3
:100B0000C4F80C62002F01D102200FE017EB151082
:100B1000C4F81002D4F800021021B5FBF1F202FB78
:100B2000115210EB4210C4F814020020BDE8F0810D
:100B30002DE9F04104000D00B4F80602401C070046
:100B4000380403D0D4F81002002801D10420A9E011
:100B50001020B7FBF0F101FB1071002940F09480E8
:100B6000D4F81002401CC4F81002D4F80C0200287B
:100B700008D1D4F80002B0F808028742C0F084809F
:100B800004208FE0D4F8000290F80202401E10EA20
:100B9000171F79D1D4F80C12D4F80002FFF730FDFA
:100BA0000600022E01D202207CE016F1010F01D1D5
:100BB000012077E0D4F80002D0F8180286425AD318
:100BC000002D01D104206DE0D4F80C12D4F80002FD
:100BD000FFF7A2FE0600002E01D1072062E0012EE1
:100BE00001D102205EE016F1010F01D1012059E090
:100BF000D4F80002FFF728FC002801D0012051E0C2
:100C00004FF400720021D4F80002FFF7CBFA310054
:100C1000D4F80002FFF7E4FCD4F80012C1F8300267
:100C200000208046D4F8000290F80202804518D2D5
:100C30000120D4F8001281F80402D4F80002FFF772
:100C400003FC002801D001202CE0D4F80002D0F8E9
:100C50003002401CD4F80012C1F8300218F101082B
:100C6000E0E7D4F80002D0F83002B0EB0800D4F886
:100C70000012C1F83002C4F80C623100D4F800024E
:100C8000FFF7AEFCC4F81002A4F80672D4F8000214
:100C90001021B7FBF1F202FB117210EB4210C4F805
:100CA00014020020BDE8F081F8B504000D00002119
:100CB0002000FFF7CFFE0600F6B2002E23D1002061
:100CC0000700D4F81012D4F80002FFF7F1FB060079
:100CD000F6B2002E17D1D4F814020078E52804D01B
:100CE000D4F814020078002803D17F1CAF4202D14F
:100CF00009E00020070001212000FFF719FF06008E
:100D0000F6B2002EDDD0F6B2042E01D10720060087
:100D10003000C0B2F2BD10B40200CB7E8C7E54EA2B
:100D200003239BB2180092F80032032B06D14B7DAF
:100D30000C7D54EA03239BB250EA034010BC704779
:100D400081760A0092B2120AC2760A0C02750A0C67
:100D500092B2120A42757047F8B5040000212000D3
:100D6000FFF778FE0700FFB2002F02D03800C0B2B4
:100D700029E0D4F81012D4F80002FFF799FB07001D
:100D8000FFB2002F1DD1D4F8140206003078050000
:100D9000EDB2002D02D10420070012E0F07A000726
:100DA00007D40B22D4F818123000FFF706FA0028F7
:100DB00007D000212000FFF7BBFE0700FFB2002F85
:100DC000D7D03800C0B2F2BD2DE9F84304000D00C1
:100DD00004200600D4F8100200283CD0D4F81012E9
:100DE000D4F80002FFF764FB0600F6B2002E32D101
:100DF000D4F81402814699F8000080465FFA88F81A
:100E0000B8F1000F02D10420060024E099F80B008D
:100E100010F03F0007005FFA88F8B8F1E50F12D034
:100E20005FFA88F8B8F12E0F0DD0FFB20F2F0AD05D
:100E3000FFB237F02000082801D1012000E0002097
:100E4000C0B2A84207D000212000FFF771FE0600C3
:100E5000F6B2002EBED0F6B2002E02D00020C4F8AA
:100E600010023000C0B2BDE8F28338B504000121A1
:100E70002000FFF719FF0500EDB2002D1BD1D4F8BB
:100E80001012D4F80002FFF713FB0500EDB2002D9D
:100E900011D120220021D4F81402FFF783F90B228C
:100EA000D4F81812D4F81402FFF76EF90120D4F820
:100EB000001281F804022800C0B232BD38B5040027
:100EC000B4F806122000FFF7C5FD0500EDB2002DB5
:100ED00018D1D4F81012D4F80002FFF7E9FA05008F
:100EE000EDB2002D0ED120220021D4F81402FFF71C
:100EF00059F9E520D4F8141208700120D4F8001232
:100F000081F804022800C0B232BDF0B411F1090624
:100F10003500D0F81062002E30D0D0F814623300C3
:100F2000002634000B2C12D2E65C3200641CD2B2D4
:100F3000202AF7D0D2B2052A01D1E5263200092CA9
:100F400002D12E262E706D1C2A706D1CEAE7DE7A07
:100F50000E72DE7F9F7F3F0457EA06665F7F56EA88
:100F600007261F7F3E430E605E7E1F7E57EA0626E1
:100F70008E80DE7D9F7D57EA0626CE8000262E706D
:100F8000F0BC70472DE9F14F0C00206883469BF8B8
:100F900000002F2803D09BF800005C2802D11BF131
:100FA000010BF4E70098D0F8180207000B2220216B
:100FB0003800FFF7F7F800200500EDB2AA46D14649
:100FC0000820804619F80B00060019F10109F6B255
:100FD000212E05DBF6B22F2E02D0F6B25C2E06D102
:100FE00019EB0B002060F6B2212E41DA3EE0F6B29A
:100FF0002E2E01D0C2450DD3B8F1080F02D1F6B2A2
:101000002E2E01D0062052E0082082460B2080467A
:10101000AD00D7E7F6B2802E07DB55F00305DFF809
:101020005007F6B2301810F8806CF6B23100DFF8D5
:101030004407FFF7D4F8002801D0062037E0F6B2C5
:10104000412E05DBF6B25B2E02DA55F0020508E010
:10105000F6B2612E05DBF6B27B2E02DA55F0010501
:10106000203E0AF807601AF1010AABE7042600E007
:101070000026BAF1000F01D1062018E03878E528E3
:1010800001D105203870B8F1080F00D1AD00EDB2E4
:1010900015F00300012801D156F01006EDB215F04D
:1010A0000C00042801D156F00806FE720020BDE8AD
:1010B000F28FF2B50400009800782F2803D0009832
:1010C00000785C2802D10098401C00900020C4F8F1
:1010D000080200980078202808D200212000FFF79D
:1010E000B9FC05000020C4F814022DE06946200078
:1010F000FFF748FF0500EDB2002D25D12000FFF7D6
:101100002BFE0500D4F81802C07A0700EDB2002DBE
:1011100007D0EDB2042D03D1780701D405200500D6
:1011200012E0780710D4D4F814020600F07AC00652
:1011300002D40520050007E03100D4F80002FFF7D3
:10114000EAFDC4F80802D1E72800C0B2F2BD30B40D
:1011500001005FF0FF300D68002D1ED00D682B00E0
:101160001D78212D04D31D783A2D01D05B1CF7E7A3
:101170001D783A2D0FD10D682A001578303D2C00CE
:10118000521C0A2C06D29A4204D1002C02D1200013
:101190005B1C0B6001E00025280030BC704738B5AF
:1011A00004000D00002084F804025FF0FF30C4F852
:1011B000300229002000FFF77BF9002801D003202E
:1011C0002DE094F8FF0194F8FE1151EA002080B25E
:1011D0004AF65521884201D0022020E094F83800D8
:1011E00094F83710090251EA004094F83610084389
:1011F000DFF88415884201D1002010E094F85400F3
:1012000094F85310090251EA004094F85210084330
:10121000DFF86415884201D1002000E0012032BDD2
:101220002DE9F34F89B093460020099908600A9888
:10123000FFF78DFF04900498002801D50B201BE2D6
:10124000DFF83805049950F821008146B9F1000F04
:1012500001D10C2010E24846FEF7CBFF002801D157
:101260000F2009E20998C0F8009099F800020028C0
:1012700016D099F8010201F0A7FB8DF800009DF847
:101280000000C0070CD45FFA8BFBBBF1000F05D048
:101290009DF80000400701D50A20EDE10020EBE1B8
:1012A000002089F80002049889F8010299F80102E7
:1012B00001F09BFB8DF800009DF80000C00701D5F0
:1012C0000320D9E15FFA8BFBBBF1000F05D09DF83D
:1012D0000000400701D50A20CEE1002006003100C1
:1012E0004846FFF75CFF0400E4B2012C3AD100202D
:1012F0008246BAF1040F19D219EB0A1010F5DF700B
:101300000500287900280AD0E87AA97A090451EA68
:101310000060697A50EA0120297A084300E0002041
:1013200005A941F82A001AF1010AE2E700208246E5
:10133000BAF1000F01D0BAF1010A05A850F82A004D
:101340000600002E04D031004846FFF728FF00E0D9
:1013500002200400E4B2002C04D01AF1010ABAF110
:10136000040FEAD3E4B2032C01D1012084E1E4B2FA
:10137000002C01D00D207FE199F80C0099F80B109A
:1013800051EA002080B2B0F5007F01D00D2073E15A
:1013900099F8170099F8161051EA002080B207005A
:1013A000002F0ED199F8270099F82610090451EA68
:1013B000006099F8251050EA012099F8241008439C
:1013C0000700C9F81C7299F8100089F8030299F80F
:1013D0000302012805D099F80302022801D00D204C
:1013E0004AE199F80302474399F80D0089F802028F
:1013F00099F80202002806D099F8020299F8021220
:10140000491E084201D00D2036E199F8120099F8E2
:10141000111051EA0020A9F80802B9F808021021B9
:10142000B0FBF1F202FB1102002A01D00D2023E1F2
:1014300099F8140099F8131051EA002080B2029034
:10144000029800280ED199F8230099F82210090477
:1014500051EA006099F8211050EA012099F8201013
:101460000843029099F80F0099F80E1051EA0020F5
:10147000ADF80200BDF80200002801D10D20FBE00C
:10148000BDF8020017FA80F0B9F8081210EB11103D
:10149000039002980399884201D20D20ECE0029853
:1014A0000399401A99F80212B0FBF1F001900198EB
:1014B000002801D10D20DFE001200400019840F652
:1014C000F671884201D30220040001984FF6F671AC
:1014D000884201D3032004000198801CC9F8180237
:1014E000C9F82062BDF8020016FA80F0C9F824029B
:1014F00003988019C9F82C02E4B2032C1AD1B9F868
:101500000802002801D00D20B6E099F82F0099F8C4
:101510002E10090451EA006099F82D1050EA0120BC
:1015200099F82C100843C9F82802D9F8180280004D
:1015300080461CE0B9F80802002801D10D209BE08C
:10154000D9F824023818C9F82802E4B2022C04D1D0
:10155000D9F818025FEA400809E0D9F81802032117
:10156000484399F8181211F0010111EB5008D9F80D
:101570001C0208F2FF11B0EB512F01D20D207BE0CD
:101580005FF0FF30C9F81402D9F81402C9F810024C
:10159000802089F80502E4B2032C5ED199F831006D
:1015A00099F8301051EA002080B2012855D1711C01
:1015B0004846FEF77DFF00284FD1002089F805023C
:1015C00099F8FF0199F8FE1151EA002080B24AF61D
:1015D0005521884241D199F8030099F80210090475
:1015E00051EA006099F8011050EA012099F80010C2
:1015F00008436349884230D199F8E70199F8E61128
:10160000090451EA006099F8E51150EA012099F8BF
:10161000E41108435B4988421FD199F8EB0199F81E
:10162000EA11090451EA006099F8E91150EA012031
:1016300099F8E8110843C9F8140299F8EF0199F8EC
:10164000EE11090451EA006099F8ED1150EA012009
:1016500099F8EC110843C9F8100289F800424A4889
:101660000088401C4849088047480088A9F80602BD
:101670004846FEF7D0FE00200BB0BDE8F08F38B52D
:1016800004002500002D19D0D5F80002002815D03F
:10169000D5F8000290F8000200280FD0D5F800021B
:1016A000B0F80602B5F80412884207D1D5F8000256
:1016B00090F8010201F088F9C00701D5092008E07F
:1016C000D5F80002FEF795FD002801D10F2000E0BB
:1016D000002032BDF3B581B0140002980090684636
:1016E000FFF735FD0600002E01D50B203EE0234814
:1016F00050F826000500002D0DD02800FEF78BFEC7
:10170000D5F80C0201F038F9002801D102202DE0B3
:10171000002085F80002019800280ED000200199D1
:1017200081F80002019810F503713000C0B201F099
:101730000DF9002801D1022018E001980F4941F865
:1017400026000198002802D0E4B2012C01D000202C
:101750000CE0002202A901A8FFF762FD0700390092
:10176000C9B20198FEF74CFD3800C0B2FEBD0000C2
:1017700048170108C830010846415400447601204A
:101780005252614172724161A07601202DE9F2430B
:10179000ADF50C7D04001500002C01D10920F4E00A
:1017A0000020C4F8000215F01F0515F0FE028CA9F8
:1017B00083A8FFF735FD0600F6B2002E40F0DE806C
:1017C000684689908C9903A8FFF773FC06008898F7
:1017D0000700F6B2002E0ED1002F02D1062006001F
:1017E00009E0FE20054201D0012100E0002103A80C
:1017F000FEF71CFD06001C20054264D0F6B2002E48
:1018000011D0F6B2042E09D1FEF758FD002803D0FE
:1018100003A8FFF72AFB00E01220060055F0080598
:10182000889807000AE0F87A1121084202D00720C0
:10183000060003E0680701D508200600F6B2002E76
:1018400051D128074FD501F049F9804687F80E801D
:10185000404680B2000AF8735FEA184038745FEAC5
:10186000186078740020F8720020387700207877AC
:101870000020B8770020F87739008398FFF74BFAFB
:10188000814600213800FFF75BFA0120839981F837
:101890000402B9F1000F26D08398D0F830028046B8
:1018A00049468398FEF7F6FF0600F6B2002E1AD1DD
:1018B000B9F101008399C1F8100241468398FEF7FF
:1018C000F7FD06000FE0F6B2002E0CD1F87AC00644
:1018D00002D50420060006E0A80704D5F87AC00760
:1018E00001D507200600F6B2002E1BD1280701D52E
:1018F00055F020058398D0F83002C4F81C02C4F8D3
:101900002072FE20054201D0012100E0002103A841
:10191000FEF7E7FCC4F82802D4F82802002801D119
:1019200002200600F6B2002E28D184F806520020CC
:1019300084F8070239008398FFF7EDF9C4F8100224
:10194000F87FB97F090451EA0060797F50EA0120ED
:10195000397F0843C4F80C020020C4F808020020B4
:10196000C4F818020020C4F824028398C4F80002C6
:10197000D4F80002B0F80602A4F804023100C9B29B
:101980008398FEF73DFC3000C0B20DF50D7DBDE83B
:10199000F0832DE9F24F82B0834614001D00DDF87C
:1019A00008A0002028605846FFF769FE8DF8010066
:1019B0009DF80100002808D09DF80110DBF8000216
:1019C000FEF71EFC9DF801003EE19BF8070200288F
:1019D00008D09BF80712DBF80002FEF711FC9BF819
:1019E000070231E19BF80602C00706D40721DBF8A5
:1019F0000002FEF705FC072026E1DBF80C02DBF80D
:101A00000812401A01900198A04201D201980400E6
:101A1000002C00F01381DBF808024FF40071B0FBDA
:101A2000F1F202FB1102002A40F0DD80DBF808022F
:101A3000400ADBF8001291F80212491E08408DF8A6
:101A400000009DF80000002834D1DBF808020028CF
:101A500003D1DBF81002060011E0DBF824020028B5
:101A600006D0DBF808125846FEF7D5FF060006E060
:101A7000DBF81412DBF80002FEF7C2FD0600022EAE
:101A800009D202208BF807020221DBF80002FEF7E0
:101A9000B7FB0220D8E016F1010F09D101208BF825
:101AA00007020121DBF80002FEF7AAFB0120CBE0D0
:101AB000CBF81462DBF81412DBF80002FEF790FD9D
:101AC0000700002F09D102208BF807020221DBF862
:101AD0000002FEF795FB0220B6E09DF8000057FAE1
:101AE00080F7600A8146B9F1000F41D0DBF80002AF
:101AF00090F802029DF8001059FA81F1884207D24D
:101B0000DBF8000290F802029DF80010401A8146AE
:101B10004B463A005146DBF8000290F8010200F013
:101B20007FFF002809D001208BF807020121DBF894
:101B30000002FEF765FB012086E09BF806024006E6
:101B400010D5DBF81802C01B48450BD24FF40072C9
:101B50005946DBF81802C01B4FF4007303FB00A0CA
:101B6000FEF712FB4FF4007000FB09F0804656E0D0
:101B7000DBF81802B84234D09BF8060240061BD5A9
:101B80000123DBF818225946DBF8000290F8010225
:101B900000F062FF002809D001208BF80702012124
:101BA000DBF80002FEF72CFB01204DE09BF806025B
:101BB00010F0BF008BF8060201233A005946DBF80B
:101BC000000290F8010200F02BFF002809D001204C
:101BD0008BF807020121DBF80002FEF711FB012060
:101BE00032E0CBF81872DBF808024FF40071B0FB5A
:101BF000F1F202FB1102D2F500708046444500D29A
:101C0000A0464246DBF808024FF40071B0FBF1F346
:101C100003FB110313EB0B015046FEF7B5FA18EB6B
:101C20000A0ADBF8080218EB0000CBF80802286863
:101C300018EB00002860B4EB0804E9E60021DBF8AB
:101C40000002FEF7DDFA0020BDE8FE8F2DE9F24F1D
:101C500082B0834614001D00DDF808A00020286033
:101C60005846FFF70CFD8DF801009DF80100002893
:101C700008D09DF80110DBF80002FEF7C1FA9DF8CC
:101C800001006BE19BF80702002808D09BF80712BF
:101C9000DBF80002FEF7B4FA9BF807025EE19BF85E
:101CA0000602800706D40721DBF80002FEF7A8FA37
:101CB000072053E1DBF808022018DBF808128842FD
:101CC00001D200200400002C00F03281DBF8080271
:101CD0004FF40071B0FBF1F202FB1102002A40F058
:101CE000F680DBF80802400ADBF8001291F80212D5
:101CF000491E08408DF800009DF80000002845D1DD
:101D0000DBF8080200280BD1DBF810020600002ED9
:101D100018D10021DBF80002FEF7FEFD060011E0FD
:101D2000DBF82402002806D0DBF808125846FEF73C
:101D300072FE060006E0DBF81412DBF80002FEF784
:101D4000EBFD0600002E00F0F380012E09D10220E9
:101D50008BF807020221DBF80002FEF751FA02209D
:101D6000FCE016F1010F09D101208BF807020121D7
:101D7000DBF80002FEF744FA0120EFE0CBF8146232
:101D8000DBF81002002801D1CBF810629BF80602A4
:101D900040061BD50123DBF818225946DBF8000268
:101DA00090F8010200F058FE002809D001208BF8BD
:101DB00007020121DBF80002FEF722FA0120CDE044
:101DC0009BF8060210F0BF008BF80602DBF8141235
:101DD000DBF80002FEF704FC0700002F09D1022007
:101DE0008BF807020221DBF80002FEF709FA022055
:101DF000B4E09DF8000057FA80F7600A8146B9F117
:101E0000000F43D0DBF8000290F802029DF80010AA
:101E100059FA81F1884207D2DBF8000290F80202F9
:101E20009DF80010401A81464B463A005146DBF8B7
:101E3000000290F8010200F00FFE002809D00120F6
:101E40008BF807020121DBF80002FEF7D9F9012027
:101E500084E0DBF81802C01B484511D24FF4007231
:101E6000DBF81802C01B4FF4007101FB00A15846BB
:101E7000FEF78AF99BF8060210F0BF008BF8060205
:101E80004FF4007000FB09F0804642E0DBF81802D6
:101E9000B8421AD0DBF80802DBF80C12884214D2E0
:101EA00001233A005946DBF8000290F8010200F0E5
:101EB000B7FD002809D001208BF807020121DBF8CB
:101EC0000002FEF79DF9012048E0CBF81872DBF81C
:101ED00008024FF40071B0FBF1F202FB1102D2F5DF
:101EE00000708046444500D2A04642465146DBF889
:101EF00008024FF40073B0FBF3FC0CFB130C1CEB5B
:101F00000B00FEF741F99BF8060250F040008BF8F9
:101F1000060218EB0A0ADBF8080218EB0000CBF8FF
:101F20000802286818EB00002860B4EB0804CAE631
:101F3000DBF80C02DBF80812884203D2DBF8080257
:101F4000CBF80C029BF8060250F020008BF806023A
:101F50000021DBF80002FEF753F90020BDE8FE8FF8
:101F6000F8B504002000FFF78AFB0500EDB2002D54
:101F700066D194F80602800662D594F806024006FF
:101F800018D50123D4F818222100D4F8000290F8C3
:101F9000010200F061FD002806D00121D4F8000202
:101FA000FEF72EF9012053E094F8060210F0BF006E
:101FB00084F80602D4F81C12D4F80002FEF778FA6E
:101FC0000500EDB2002D3BD1D4F820020700F87ACD
:101FD00050F02000F872D4F80C023877D4F80C02D4
:101FE00080B2000A7877D4F80C02000CB877D4F8E5
:101FF0000C02000EF877D4F810123800FEF7A0FE9D
:1020000000F06CFD0600BE75300080B2000AF87565
:10201000300C3876300E78760020B8740020F874D2
:1020200094F8060210F0DF0084F806020120D4F8CC
:10203000001281F80402D4F80002FEF75BFA0500F2
:102040002900C9B2D4F80002FEF7DAF82800C0B2BD
:10205000F2BD70B504002000FFF782FF0500EDB26D
:10206000002D17D12000FFF70AFB0500EDB2002D6F
:1020700010D1D4F80062D4F82802FEF7A1F90500C7
:10208000EDB2002D02D10020C4F800020021300082
:10209000FEF7B6F82800C0B270BD2DE9F04F87B04A
:1020A00081460C004846FFF7EAFA8DF808009DF8D3
:1020B0000800002808D09DF80810D9F80002FEF7A3
:1020C0009FF89DF808000DE299F80702002808D053
:1020D00099F80712D9F80002FEF792F899F807026A
:1020E00000E2D9F82402002800F0D98014F1010F91
:1020F0005AD1D9F824028246DAF8000004901AF185
:10210000040A02208346D9F810020700002F3CD0B1
:102110000597002080461BF1020B069718F1010875
:102120003900D9F80002FEF76BFA0700022F09D236
:10213000022089F807020221D9F80002FEF760F8B0
:102140000220CFE117F1010F09D1012089F8070220
:102150000121D9F80002FEF753F80120C2E10698E8
:10216000401C8742D9D00498584508D3CAF800804B
:102170001AF1040A0598CAF800001AF1040AD9F8FD
:102180000002D0F818028742C2D3D9F82402C0F85E
:1021900000B00498584503D30020CAF8000099E124
:1021A00011208DF8080095E1D9F80C02A04202D266
:1021B000D9F80C020400C9F80842002C00F08A810A
:1021C000611E4846FEF727FCC9F81402D9F814121C
:1021D000D9F80002FEF704FA01900198002809D10D
:1021E000022089F807020221D9F80002FEF708F858
:1021F000022077E10198611ED9F8002292F80222AC
:10220000521E12EA512108180190D9F808024FF421
:102210000071B0FBF1F202FB1102002A00F05A81BA
:102220000198D9F81812884200F0548199F80602F2
:1022300040061BD50123D9F818224946D9F80002D7
:1022400090F8010200F008FC002809D0012089F86C
:1022500007020121D9F80002FDF7D2FF012041E178
:1022600099F8060210F0BF0089F806020123019ACE
:102270004946D9F8000290F8010200F0D1FB00288D
:1022800009D0012089F807020121D9F80002FDF7E1
:10229000B7FF012026E10198C9F818021AE1D9F820
:1022A0000C02A04206D299F80602800702D4D9F89F
:1022B0000C020400D9F80802039000200600C9F8B7
:1022C0000862002C00F0B180D9F8000290F80202F8
:1022D0004FF40071484300900398002818D00398E9
:1022E000401E0099B0FBF1F0611E009AB1FBF2F1C3
:1022F00081420DD30398401E0099491E8843C9F8B6
:102300000802D9F80802241AD9F81402050027E0B7
:10231000D9F810020500002D20D10021D9F80002C3
:10232000FEF7FAFA0500012D09D1022089F807020B
:102330000221D9F80002FDF763FF0220D2E015F177
:10234000010F09D1012089F807020121D9F8000203
:10235000FDF756FF0120C5E0C9F81052C9F8145224
:10236000002D62D00098A0423ED299F80602800764
:102370000AD52900D9F80002FEF7CEFA0500002D93
:1023800008D1009804002FE02900D9F80002FEF7D8
:1023900037F9050015F1010F09D1012089F807026D
:1023A0000121D9F80002FDF72BFF01209AE0022D50
:1023B00005D3D9F80002D0F81802854209D30220CB
:1023C00089F807020221D9F80002FDF719FF02205F
:1023D00088E0C9F81452D9F8080200990818C9F819
:1023E00008020098241ABDE7D9F808022018C9F895
:1023F00008024FF40070B4FBF0F101FB104100291A
:1024000013D02900D9F80002FEF7EAF80600002EE2
:1024100009D1022089F807020221D9F80002FDF74C
:10242000EFFE02205EE016EB5426D9F808024FF4C6
:102430000071B0FBF1F202FB1102002A3AD0D9F888
:102440001802864236D099F8060240061BD50123B1
:10245000D9F818224946D9F8000290F8010200F094
:10246000FBFA002809D0012089F807020121D9F8D8
:102470000002FDF7C5FE012034E099F8060210F0D5
:10248000BF0089F80602012332004946D9F800024C
:1024900090F8010200F0C4FA002809D0012089F860
:1024A00007020121D9F80002FDF7AAFE012019E078
:1024B000C9F81862D9F80C02D9F80812884209D272
:1024C000D9F80802C9F80C0299F8060250F0200069
:1024D00089F806029DF80810D9F80002FDF790FE71
:1024E0009DF8080007B0BDE8F08F32B584B0040055
:1024F000002C01D109205FE0002204A96846FEF704
:102500008FFE0500EDB2002D49D10098C4F80002FD
:1025100001A8C4F8180204992000FEF7CAFD0500BE
:10252000EDB2002D36D1D4F8140200280ED0D4F824
:102530001402C07AC00607D5D4F814120098FEF72A
:10254000EAFBC4F8080201E005200500EDB2002D09
:1025500020D10098B0F80602A4F80402002120005F
:10256000FEF778FA0500EDB2002D13D1D4F8080279
:1025700000280CD000212000FDF7B3FEC4F81C0297
:10258000D4F81C02002805D11220050002E000202A
:10259000C4F81C02EDB2042D01D105200500EDB2F6
:1025A000002D02D00020C4F800022900C9B2009812
:1025B000FDF726FE2800C0B205B030BD70B504009E
:1025C0002000FFF75CF80500EDB2002D14D1D4F81F
:1025D0000062D4F81C02002804D0D4F81C02FDF7D5
:1025E000EFFE0500EDB2002D02D10020C4F800027C
:1025F00000213000FDF704FE2800C0B270BD70B5A8
:1026000084B004000D002000FFF739F80600F6B290
:10261000002E2BD1002D05D100212000FEF71AFA43
:10262000060023E06846C4F8180200212000FEF7E7
:10263000CBFB0600F6B2042E04D10020C4F8100231
:1026400000200600F6B2002E10D129002000FEF76F
:102650005CFC00212000FEF76BFA0600F6B2042EA7
:1026600004D10020C4F81002002006003100C9B2D5
:10267000D4F80002FDF7C4FD3000C0B204B070BD54
:1026800031B5ADF50C7D0C0000228CA983A8FEF7B6
:10269000C7FD0500EDB2002D15D1684689908C99D3
:1026A00003A8FEF706FD0500EDB2002D0BD18898BA
:1026B000002806D0002C06D0210003A8FEF725FC38
:1026C00001E0062005002900C9B28398FDF798FDB6
:1026D0002800C0B20DF50D7D30BD71B5ADF24C4D89
:1026E00000260122FFA95031FFA83030FEF798FDE7
:1026F0000400E4B2002C66D16846CDF84404DDF84D
:102700004C148BA8FEF7D5FC0400E4B2002C04D1D5
:1027100002218BA8FDF78AFD0400E4B2002C52D1FF
:10272000DDF840040500002D02D10620040004E07D
:10273000E87AC00701D507200400E4B2002C28D1B4
:102740002900DDF82C04FEF7E6FA0600002E20D062
:10275000E87AC0061DD54FF408728BA903A8FDF7CF
:1027600013FD8596022103A8FEF774F90400E4B274
:10277000002C0ED1002103A8FEF726FB0400E4B2D2
:10278000002C01D107200400E4B2042C01D1002068
:102790000400E4B2002C16D18BA8FEF78FFB0400D6
:1027A000E4B2002C07D1002E05D03100DDF82C0456
:1027B000FEF770F80400E4B2002C04D1DDF82C041C
:1027C000FDF798FE04002100C9B2DDF82C04FDF7E6
:1027D00017FD2000C0B20DF58A6D70BD73B5ADF563
:1027E0008D6D01220DF58D61FFA84830FEF718FDB3
:1027F0000400E4B2002C40F09E80DDF8440489908F
:102800006846CDF85C04DDF8681491A8FEF751FC29
:102810000400E4B2002C04D1022191A8FDF706FDCA
:102820000400E4B2002C40F08680DDF85804002853
:1028300002D1042004007EE01522DDF8580410F1D6
:102840000B0103A8FDF7A0FC4FF4087291A909A899
:10285000FDF79AFCFFA87030FEF779FC002806D43B
:10286000DDF86C1409A8FEF724FC040001E00B203D
:102870000400E4B2002C01D108200400E4B2042CCE
:1028800059D109A8FEF7F1FA0400E4B2002C52D1A4
:102890008E98050013220DF10E0115F10D00FDF7C4
:1028A00073FC9DF80C0050F02000E8720120DDF868
:1028B000441481F80402E87AC0062DD5DDF84C04F2
:1028C0008B99884228D02900DDF84404FEF723FACA
:1028D0000100DDF84404FDF783FE0600002E02D15E
:1028E0000220040018E03100DDF84404FDF7E0FDAB
:1028F0000400DDF8440420300500E4B2002C0BD1C4
:1029000068782E2808D18B992800FEF719FA012043
:10291000DDF8441481F80402E4B2002C0BD191A834
:10292000FEF7CCFA0400E4B2002C04D1DDF8440434
:10293000FDF7E0FD04002100C9B2DDF84404FDF715
:102940005FFC2000C0B20DF58E6D70BD70B582B019
:1029500004000D000748006800900121684600F05F
:1029600001F928602868002801D0012600E000262F
:10297000300076BD8832010810B50400200000F058
:1029800075F9012010BD38B5040000254FF47A71A7
:10299000200000F0FEF8002801D1012005002800E9
:1029A00032BD10B50400200000F036F910BD826879
:1029B000521C8260426832B10268531C036011707D
:1029C0004168491E4160704738B504003B48E4B295
:1029D0002018007A3949E4B211EB8401496849684A
:1029E000884705002800C0B232BD38B50400002574
:1029F0003248E4B2205C00280FD101202F49E4B214
:102A000060542E48E4B22018007A2C49E4B211EB4D
:102A1000840149680968884705002800C0B232BDB2
:102A20002DE9F04104000D0016001F003B003200AC
:102A300029002248E4B22018007ADFF880C0E4B20E
:102A40001CEB840CDCF804C0DCF808C0E0478046CE
:102A50004046C0B2BDE8F0812DE9F04104000D0010
:102A600016001F003B00320029001448E4B2201871
:102A7000007ADFF848C0E4B21CEB840CDCF804C038
:102A8000DCF80CC0E04780464046C0B2BDE8F081AB
:102A9000F8B504000D00160032002900C9B207483D
:102AA000E4B22018007A054BE4B213EB84035B68B0
:102AB0001B69984707003800C0B2F2BD10760120AC
:102AC00080B50349034800F015F90349087001BDBA
:102AD000407601208C300108A87601200020704744
:102AE0000100002009B2842902D009B2CA1C1018C2
:102AF0007047EFF30580002801D0012000E000209E
:102B0000C0B2704780B500F005FA002002BD30B5B4
:102B100085B004000D00B4F90800FFF7E1FF0021C3
:102B200003910021029104A9019100902B002269D8
:102B300092B22168606800F0E9F8012801D0002015
:102B400000E0049805B030BD38B504000120B4FBA6
:102B5000F0F5002D01D0280000E0012000F098F9E8
:102B6000002032BD70B504000D00012D0FD10322ED
:102B70000021012000F0B0FE0600002E05D0002349
:102B800000220021300000F0E8FE300000E00020CC
:102B900070BD70B582B004000D0000200090002CC4
:102BA00001D1802037E00020060015F1010F03D18C
:102BB0005FF0FF30060009E0002D07D00120B5FBD3
:102BC000F0F00600002E01D101200600FFF791FF72
:102BD000002815D06A460021200001F0E9F80128FC
:102BE00001D0FF2017E00098002813D05FF080503C
:102BF000DFF8A4100860BFF34F8FBFF36F8F09E0B9
:102C0000002332000021200000F0ECFF012801D059
:102C1000FF2000E0002076BD38B50400002500202C
:102C20000090FFF766FF002814D06946200000F0EE
:102C30006DFF012801D0FF2017E00098002813D075
:102C40005FF08050DFF850100860BFF34F8FBFF384
:102C50006F8F09E0002300220021200000F07DFE9C
:102C6000012801D0FF200500280032BD10B5040066
:102C7000FFF73FFF002801D0822003E0200001F091
:102C8000F8F8002010BD80B500F0DDFC012801D06F
:102C900001F097FA01BD000004ED00E0F0B403007C
:102CA00001200024184D6D7A022D20DA0025164EE1
:102CB000154F7F7ABD55144D134E767A15EB860568
:102CC0006B60114D104E767A75192A720E4D6D7A21
:102CD0006E1C0D4F7E722C0014F130050D703A25DC
:102CE0004D702F258D700025CD7000252800C0B2B5
:102CF000F0BC704738B504000D0000222900200008
:102D0000FFF7CCFF32BD0000107601202DE9FA4F0D
:102D100083B0040015000E9E0F9FDDF84080DDF8A3
:102D200044902000002807D1502080F31188BFF381
:102D30004F8FBFF36F8FFEE7072E07D3502080F32E
:102D40001188BFF34F8FBFF36F8FFEE74146280016
:102D500080B200F02DFC8246BAF1000F7AD0DAF88A
:102D60003000ADB210EB8500001F83465FEADB0B3D
:102D70005FEACB0B1BF00700002807D0502080F340
:102D80001188BFF34F8FBFF36F8FFEE7280080B22B
:102D900000904B4632000399504600F044FB049AE1
:102DA0002100584601F04AF9CAF80000002F01D06E
:102DB000C7F800A001F0CFF9DFF86C050068401CEF
:102DC000DFF864150860DFF86405006800280BD19F
:102DD000DFF85805C0F800A0DFF84C0500680128AE
:102DE00011D100F056FB0EE0DFF844050068002822
:102DF00009D1DFF838050068C06A864203D3DFF8DE
:102E00002C05C0F800A0DFF82C050068401CDFF896
:102E100024150860DFF81C050068CAF84400DFF8D4
:102E2000180500680121DAF82C2091400843DFF8EA
:102E3000081508601AF10401DFF80005DAF82C2003
:102E4000142303FB020001F037FA0120019001F086
:102E50009FF902E05FF0FF3001900198012813D143
:102E6000DFF8CC04006800280ED0DFF8C00400684A
:102E7000C06AB04208D25FF08050DFF87016086078
:102E8000BFF34F8FBFF36F8F019805B0BDE8F08F90
:102E900070B504000026002C30D0DFF86005006813
:102EA000002807D0502080F31188BFF34F8FBFF365
:102EB0006F8FFEE700F05FF8DFF834060068201837
:102EC0000500DFF868040068001D01F01EFA002804
:102ED0000ED1DFF858040068DFF85C14096801229D
:102EE000C06A12FA00F031EA0000DFF84C14086002
:102EF000280000F032FB00F046F80600002E08D152
:102F00005FF08050DFF8A0160860BFF34F8FBFF36B
:102F10006F8F70BD1FB5002003900020029000202D
:102F200001900020009000238022DFF8EC170FF2C0
:102F3000D140FFF7EBFE0400012C11D1502080F3AB
:102F40001188BFF34F8FBFF36F8F0120DFF8E013BD
:102F500008600020DFF89815086001F096F809E095
:102F6000002C07D1502080F31188BFF34F8FBFF39F
:102F70006F8FFEE71FBDDFF884040068401CDFF898
:102F80007C140860704738B50025DFF870040068CD
:102F9000002807D1502080F31188BFF34F8FBFF373
:102FA0006F8FFEE701F0D7F8DFF850040068401E8D
:102FB000DFF848140860DFF84404006800285ED198
:102FC000DFF864030068002859D0DFF80C080068B7
:102FD00000282AD0DFF80008C068C068040014F197
:102FE000180001F092F9201D01F08FF9DFF8480375
:102FF00000680121E26A91400843DFF83C13086051
:10300000211DDFF83803E26A142303FB020001F0FC
:1030100053F9E06ADFF814130968C96A8842D4D307
:103020000120DFF8E4170860CFE7DFF8D007006879
:10303000002814D0DFF8C407006800280FD000F083
:1030400022F8002803D00120DFF8BC170860DFF861
:10305000AC070068401EDFF8A4170860EAE7DFF855
:10306000A807006801280AD1012005005FF0805000
:10307000DFF834150860BFF34F8FBFF36F8F01F097
:1030800087F8280032BD2DE9F0410026DFF86C03F7
:103090000068002840F08080DFF854040068401C7D
:1030A000DFF84C140860DFF848040768002F24D1CB
:1030B000DFF84C0700680068002807D0502080F334
:1030C0001188BFF34F8FBFF36F8FFEE7DFF8300734
:1030D00000688046DFF82C070068DFF824170860D6
:1030E000DFF82007C0F80080DFF820070068401CE8
:1030F000DFF81817086000F091FADFF81807006889
:1031000087423CD3DFF8F80600680068002805D144
:103110005FF0FF30DFF8FC16086030E0DFF8E00613
:103120000068C068C068040060680500AF4203D250
:10313000DFF8E006056022E0201D01F0E6F8A06A55
:10314000002803D014F1180001F0DFF87A48006875
:103150000121E26A9140084377490860211D7748C0
:10316000E26A142303FB020001F0A6F8E06A6F494B
:103170000968C96A8842C5D301200600C2E76F48C2
:103180006A490968C96A142202FB01000068022822
:1031900009D30120060006E0DFF860060068401C45
:1031A000DFF858160860DFF860060068002801D0D4
:1031B000012006003000BDE8F081DFF84002006821
:1031C000002804D00120DFF8401608602DE0002020
:1031D000DFF83416086058490968B1FA81F1D1F175
:1031E0001F0108005549142202FB0011096800293B
:1031F00007D1502181F31188BFF34F8FBFF36F8F39
:10320000FEE74E4A142303FB002211004A6852686D
:103210004A604A6811F108039A4202D14A6852682A
:103220004A604968C968414A1160704770B5040036
:103230000D00002C07D1502080F31188BFF34F8F71
:10324000BFF36F8FFEE73948006810F118012000C6
:1032500001F03EF835480068001D01F056F80028DE
:103260000BD132480068344909680122C06A12FA59
:1032700000F031EA00003049086015F1010F07D174
:103280002A480068011DDFF8240301F015F807E063
:10329000DFF88405006828180600300000F05DF9AA
:1032A00070BD70B50400E068C0680500002D07D14E
:1032B000502080F31188BFF34F8FBFF36F8FFEE76D
:1032C00015F1180001F021F84C480068002813D1CE
:1032D000281D01F01AF8184800680121EA6A914097
:1032E000084315490860291D1448EA6A142303FBA2
:1032F000020000F0E1FF05E015F11801DFF8D80445
:1033000000F0DAFF09480068C06AE96A884206D21C
:10331000012006000120DFF8F814086001E0002019
:103320000600300070BD000078760120687601202C
:10333000847601209476012080760120386F012068
:10334000002807D1502181F31188BFF34F8FBFF3BD
:103350006F8FFEE7DFF8B41409680160DFF8B81476
:10336000096841607047F8B504000D00002C07D1D2
:10337000502080F31188BFF34F8FBFF36F8FFEE7AC
:10338000002D07D1502080F31188BFF34F8FBFF37A
:103390006F8FFEE700F0DFFE55480768286810F1E0
:1033A000010F02D1002006001DE0DFF86004006874
:1033B0002168884205D06068874202D30120060058
:1033C00011E06068381A296888420AD22868C01B50
:1033D0006168081828602000FFF7B2FF002006008F
:1033E00001E00120060000F0D3FE3000F2BD012014
:1033F000DFF81C1408607047000000009876012078
:1034000010B5040000F076F8DFF814040068022814
:10341000F8D35FF08050DFF810140860BFF34F8FCF
:10342000BFF36F8FEEE72DE9F04104000D001600A9
:103430001F0000208046B8F1100F0CD218F80500CC
:1034400018EB040181F8340018F80500002802D0B8
:1034500018F10108EFE7002084F84300072E01D39C
:1034600006200600E662E66400202065201D00F0CC
:1034700020FF14F1180000F01CFF2461D6F10700B2
:10348000A061646200206065002084F85800BDE8F7
:10349000F08110B500200400072C08D2DFF880036B
:1034A000142101FB040000F0F5FE641CF4E7DFF8D2
:1034B0007C0300F0EFFEDFF8780300F0EBFEDFF8AE
:1034C000180300F0E7FEDFF86C0300F0E3FE374876
:1034D00000F0E0FEDFF85403DFF824130860DFF8A3
:1034E0005003DFF82013086010BD000004ED00E079
:1034F0007C76012038B5DFF84003006800282BD027
:10350000FFF739FDDFF82C030068002801D1012402
:1035100000E00024FFF737FD002CECD100F01BFE8B
:10352000DFF81003C068C0680500281D00F0EDFE3C
:10353000DFF808030068401EDFF800130860DFF8BA
:10354000F8020068401EDFF8F012086000F020FE6C
:10355000280000F05AF8CEE731BD10B50400DFF8BE
:10356000C40200684460DFF8B0020068844209D2F7
:10357000DFF8B0020068011DDFF88802006800F083
:10358000A7FE10E0DFF89C020068011DDFF8700262
:10359000006800F09DFEDFF87C020068844202D2E1
:1035A000DFF87002046010BD04ED00E0E07501205A
:1035B0002DE9F84304000D00002D04D1A4B2A000B1
:1035C00000F0BCFE00E028000700002F0BD05C20BC
:1035D00000F0B4FE0600002E01D0376305E038008D
:1035E00000F038FF01E000200600002E0AD0A4B24F
:1035F000A7005FF0A508D6F830904246390048464B
:1036000000F0DCFF3000BDE8F28310B50400206B51
:1036100000F020FF200000F01DFF10BD7849096870
:103620000968002905D15FF0FF31DFF8E82111605A
:1036300008E073490968C968C96808004168DFF88B
:10364000D42111607047DFF8F8110968002902D110
:103650000121080009E0DFF8EC110968002902D116
:103660000221080001E000210800704738B504007D
:103670002500002C4FD0E86ADFF8A8110968C96A54
:10368000884248D2A869002806D4DFF8980100686B
:10369000C06AD0F10700A8616869DFF88411EA6A9E
:1036A000142303FB0211884230D1281D00F02DFEA7
:1036B000002812D1DFF86801E96A142202FB010038
:1036C0000068002809D1DFF8540100680121EA6A86
:1036D00091408843DFF844110860DFF84801006832
:1036E000C06AE862DFF8340100680121EA6A9140AB
:1036F0000843DFF828110860291DDFF82401EA6A71
:10370000142303FB020000F0D7FD04E0DFF81401EE
:103710000068C06AE86231BD7432010870B5040007
:1037200025000026002C54D0DFF8F8000068854200
:1037300007D0502080F31188BFF34F8FBFF36F8FF6
:10374000FEE7286D002807D1502080F31188BFF3D1
:103750004F8FBFF36F8FFEE7286D401E2865E86A24
:10376000E96C884235D0286D002832D1281D00F040
:10377000CCFD002812D1DFF8A800E96A142202FB70
:1037800001000068002809D1DFF8900000680121DD
:10379000EA6A91408843DFF884100860E86CE862C8
:1037A000E86AD0F10700A861DFF870000068012125
:1037B000EA6A91400843DFF864100860291DDFF8C9
:1037C0006000EA6A142303FB020000F075FD01208B
:1037D0000600300070BD0000B8750120DFF844001D
:1037E0000068002805D0DFF83C000068016D491C26
:1037F0000165DFF83000006870470000887601201E
:103800006C760120707601208C7601209076012064
:103810008C760120080000207C7601208076012033
:10382000386F01206876012004ED00E090750120DA
:10383000A4750120CC7501207476012078760120D2
:10384000847601209876012070B504000D002600D2
:10385000002E07D1502080F31188BFF34F8FBFF3A4
:103860006F8FFEE700F077FC3068F16B326C02FB83
:10387000010070600020B0633068B0603068F16BA8
:10388000491E326C02FB0100F0605FF0FF30706493
:103890005FF0FF30B064002D12D13069002817D0DE
:1038A00016F11000FFF7FDFC012811D15FF08050E8
:1038B000DFF880170860BFF34F8FBFF36F8F07E00B
:1038C00016F1100000F0E6FC16F1240000F0E2FC16
:1038D00000F05EFC012070BD2DE9F04704000D00F2
:1038E00016005FF00009002C07D1502080F31188EA
:1038F000BFF34F8FBFF36F8FFEE7002D02D1002083
:10390000804603E005FB04F0401C804618F154009B
:1039100000F014FD8246BAF1000F10D05746002D7A
:1039200001D13F6002E01AF154003860FC633D644D
:1039300001213800FFF788FF87F85060B946B9F1D8
:10394000000F07D1502080F31188BFF34F8FBFF3D2
:103950006F8FFEE74846BDE8F0872DE9F743040086
:103960000D001E005FF00008A146B9F1000F07D15D
:10397000502080F31188BFF34F8FBFF36F8FFEE7A6
:10398000002D03D1D9F84000002801D1012000E02A
:103990000020C0B2002807D1502080F31188BFF367
:1039A0004F8FBFF36F8FFEE7022E03D1D9F83C0093
:1039B000012801D1012000E00020C0B2002807D179
:1039C000502080F31188BFF34F8FBFF36F8FFEE756
:1039D000FFF739FE002802D10298002801D101200A
:1039E00000E00020C0B2002807D1502080F31188E9
:1039F000BFF34F8FBFF36F8FFEE700F0ACFBD9F83A
:103A00003800D9F83C10884201D3022E28D1320068
:103A10002900484600F041FA0700D9F824000028A0
:103A20000FD019F12400FFF73CFC012814D15FF0FE
:103A30008050DFF800160860BFF34F8FBFF36F8F21
:103A40000AE0002F08D05FF08050DFF8E81508602A
:103A5000BFF34F8FBFF36F8F00F09AFB012053E04D
:103A60000298002803D100F093FB00204CE0B8F14D
:103A7000000F04D16846FFF763FC0120804600F088
:103A800087FBFFF778FA00F066FBD9F8440010F1E5
:103A9000010F02D10020C9F84400D9F8480010F104
:103AA000010F02D10020C9F8480000F071FB02A903
:103AB0006846FFF758FC002820D1484600F096FAE7
:103AC000002815D0029919F11000FFF7AFFB484606
:103AD00000F047FAFFF757FA00288ED15FF08050C8
:103AE000DFF850150860BFF34F8FBFF36F8F84E787
:103AF000484600F036FAFFF746FA7EE7484600F0FF
:103B000030FAFFF740FA0020BDE8FE832DE9F041CE
:103B100004000D00A046B8F1000F07D1502080F33B
:103B20001188BFF34F8FBFF36F8FFEE7D8F84000C7
:103B3000002807D0502080F31188BFF34F8FBFF3C8
:103B40006F8FFEE7D8F80000002803D1D8F80400F2
:103B5000002801D1012000E00020C0B2002807D1D8
:103B6000502080F31188BFF34F8FBFF36F8FFEE7B4
:103B700000F04AFBEFF311800700502080F311881A
:103B8000BFF34F8FBFF36F8FD8F83800D8F83C10D1
:103B9000884220D2D8F83800401CC8F83800D8F83D
:103BA000480010F1010F0ED1D8F8240000280FD0E2
:103BB00018F12400FFF775FB002809D0002D07D06D
:103BC0000120286004E0D8F84800401CC8F84800EC
:103BD0000120060001E00020060087F31188300074
:103BE000BDE8F0812DE9F74304000D001E00002719
:103BF000A146B9F1000F07D1502080F31188BFF31F
:103C00004F8FBFF36F8FFEE7002D03D1D9F840002F
:103C1000002801D1012000E00020C0B2002807D117
:103C2000502080F31188BFF34F8FBFF36F8FFEE7F3
:103C3000FFF709FD002802D10298002801D10120D8
:103C400000E00020C0B2002807D1502080F3118886
:103C5000BFF34F8FBFF36F8FFEE700F07CFAD9F808
:103C60003800002842D0D9F80C0080462900484688
:103C700000F05FF9002E20D1D9F83800401EC9F8B5
:103C80003800D9F80000002803D1FFF7A7FDC9F8D4
:103C90000400D9F81000002824D019F11000FFF713
:103CA00000FB01281ED15FF08050DFF88813086008
:103CB000BFF34F8FBFF36F8F14E0C9F80C80D9F8B2
:103CC000240000280ED019F12400FFF7EAFA00289A
:103CD00008D05FF08050DFF85C130860BFF34F8FAF
:103CE000BFF36F8F00F054FA01205FE002980028C4
:103CF00003D100F04DFA002058E0002F04D16846AF
:103D0000FFF71EFB0120070000F042FAFFF733F92E
:103D100000F021FAD9F8440010F1010F02D100207F
:103D2000C9F84400D9F8480010F1010F02D1002071
:103D3000C9F8480000F02CFA02A96846FFF713FB07
:103D400000282DD1484600F041F9002822D0D9F8AA
:103D50000000002807D100F0FEF9D9F80400FFF7B1
:103D600085FC00F015FA029919F12400FFF75EFABC
:103D7000484600F0F6F8FFF706F900287FF46DAF2B
:103D80005FF08050DFF8AC120860BFF34F8FBFF3D5
:103D90006F8F62E7484600F0E4F8FFF7F4F85CE75D
:103DA000484600F0DEF8FFF7EEF80020BDE8FE839D
:103DB0002DE9F84304000D001600A146B9F1000FEB
:103DC00007D1502080F31188BFF34F8FBFF36F8F5F
:103DD000FEE7002D03D1D9F84000002801D10120D1
:103DE00000E00020C0B2002807D1502080F31188E5
:103DF000BFF34F8FBFF36F8FFEE700F005FAEFF3CD
:103E000011808046502080F31188BFF34F8FBFF39D
:103E10006F8FD9F83800002824D02900484600F0D8
:103E200088F8D9F83800401EC9F83800D9F844009D
:103E300010F1010F0ED1D9F8100000280FD019F1A0
:103E40001000FFF72EFA002809D0002E07D001201D
:103E5000306004E0D9F84400401CC9F84400012057
:103E6000070001E00020070088F311883800BDE852
:103E7000F28338B504002500002D07D1502080F3CF
:103E80001188BFF34F8FBFF36F8FFEE7280000F05C
:103E9000BEF8280000F0DEFA31BD2DE9F843040039
:103EA0000D0016000027206C002809D1206800288A
:103EB00039D16068FFF732FC07000020606032E013
:103EC000002E13D1D4F84080D4F80890424629003F
:103ED000484600F0A7FBA068216C0818A060A06805
:103EE000616888421FD32068A0601CE0D4F840803D
:103EF000D4F80C9042462900484600F093FBE06855
:103F0000216C401AE060E0682168884203D2606852
:103F1000216C401AE060022E05D1A06B002802D06F
:103F2000A06B401EA063A06B401CA0633800BDE8DE
:103F3000F283F8B504000D00206C002810D0E06872
:103F4000216C0818E060E0686168884201D320684D
:103F5000E060266CE76832003900280000F062FB60
:103F6000F1BD10B5040000F0F6F8A06C01280EDBDE
:103F7000606A00280BD014F12400FFF792F90028A2
:103F800001D0FFF734FAA06C401EA064EDE75FF0AB
:103F9000FF30A06400F0FCF800F0DDF8606C012850
:103FA0000EDB206900280BD014F11000FFF779F91F
:103FB000002801D0FFF71BFA606C401E6064EDE73B
:103FC0005FF0FF30606400F0E3F810BD38B5040026
:103FD00000F0C1F8A06B002802D10120050001E02B
:103FE0000020050000F0D4F8280032BD38B50400E8
:103FF00000F0B1F8A06BE16B884202D1012005000E
:1040000001E00020050000F0C3F8280032BD0022C6
:10401000110008290CD2084A12EBC10252688242F0
:1040200004D10022044B43F8312001E0491CF0E7A1
:104030007047000004ED00E000750120001F5FF0F4
:1040400080730360001F0160001F0FF215030360FF
:1040500014380260001F7FF00203036020387047AD
:104060007D48006810F1010F07D0502080F31188BF
:10407000BFF34F8FBFF36F8FFEE7502080F311889F
:10408000BFF34F8FBFF36F8FFEE700B583B0734868
:1040900000687349884207D1502080F31188BFF32C
:1040A0004F8FBFF36F8FFEE76C4800686D49884201
:1040B00007D1502080F31188BFF34F8FBFF36F8F6C
:1040C000FEE7694801780191FF21017001788DF8C0
:1040D00000109DF8001011F05001644A1170072182
:1040E000634A11609DF8001009060AD56049096805
:1040F000491E5F4A11609DF8001049008DF80010BC
:10410000F0E75B4909680902594A11605849096892
:1041100011F4E061564A1160019901705548006838
:1041200050F47000534908605248006850F07040E5
:104130005049086000F05BF800204749086000F033
:10414000F3FA4D48006850F040404B49086000F0D9
:10415000DFFA00200EBD502080F31188BFF34F8F8F
:10416000BFF36F8F3C480068401C3B4908603A48E9
:10417000006801280BD141480068000607D0502094
:1041800080F31188BFF34F8FBFF36F8FFEE7704747
:1041900031480068002807D1502080F31188BFF310
:1041A0004F8FBFF36F8FFEE72B480068401E2A49F0
:1041B000086029480068002802D1002080F3118897
:1041C000704780B5EFF31180502080F31188BFF362
:1041D0004F8FBFF36F8FFEF756FF002803D05FF0BD
:1041E000805026490860002080F3118801BD2448D2
:1041F00000684FF47A71B0FBF1F0401E214908606D
:104200000720214908607047EFF30582100010284D
:1042100010D31E4A1268825C1100144A1278C9B287
:10422000914207D2502282F31188BFF34F8FBFF320
:104230006F8FFEE70E4A1268154B1B6813F4E0639C
:104240009A4207D2502282F31188BFF34F8FBFF3F7
:104250006F8FFEE7704700000000002000ED00E0D7
:1042600071C20F4170C20F4100E400E0A976012045
:104270006076012020ED00E034EF00E004ED00E086
:104280000400002014E000E010E000E084320108A7
:104290000CED00E010F1080141605FF0FF3181603A
:1042A00010F10801C16010F10801016100210160F5
:1042B000704700210161704742684A6093688B60D3
:1042C000936859609160086103685B1C03607047E4
:1042D00010B40B6813F1010F02D10469220008E049
:1042E00010F10804220054682468A34201D35268E4
:1042F000F9E754684C604C68A1608A6051600861BD
:104300000468641C046010BC7047010008698A6876
:104310004B689A604A688B685A6042688A4201D149
:104320008A68426000220A610268521E02600068C8
:1043300070470268531C0360117070472DE9F0410B
:1043400004005FF00008FEF716FE9548006800289C
:1043500001D100F0BBF893480068044269D1002CF9
:1043600015D091480068041914F0070F0FD014F10C
:10437000080014F00701441A14F0070F07D050206A
:1043800080F31188BFF34F8FBFF36F8FFEE7002CD0
:104390004FD086480068A0424BD385480600844829
:1043A000006805006868A04205D22868002802D08D
:1043B0002E002D68F6E77A480068854239D03068CB
:1043C000794909680818804628683060764800688E
:1043D00040006968091B884214D26019070017F071
:1043E0000700002807D0502080F31188BFF34F8FBB
:1043F000BFF36F8FFEE76868001B78606C60380061
:1044000000F09BF8694800686968401A67490860CD
:104410006648006867490968884203D263480068B3
:104420006449086068685F4909680843686000205B
:104430002860FEF7A8FD18F00700002807D05020DC
:1044400080F31188BFF34F8FBFF36F8FFEE74046B5
:10445000BDE8F08170B504002600002C35D052482C
:104460000068361A350068684E490968084207D165
:10447000502080F31188BFF34F8FBFF36F8FFEE79B
:104480002868002807D0502080F31188BFF34F8F91
:10449000BFF36F8FFEE7686842490968084214D08D
:1044A0002868002811D168683E4909688843686017
:1044B000FEF761FD3D480068696808183B490860DF
:1044C000280000F03AF8FEF75EFD70BD30B44FF4FE
:1044D0007053394C220012F0070F05D0D21DD208BC
:1044E000D2009B1A344CE3181100314C2160002497
:1044F0002F4D6C605C1822002B4C2468121BD208D4
:10450000D200274C22600024254D2D686C600024C9
:10451000234D2D682C600800141A4460204C246838
:1045200004604468234D2C604468204D2C605FF08B
:1045300000441C4D2C6030BC704710B41C4B1A005A
:104540001368834201D21268FAE7110053685B18BE
:10455000834204D153684468E3185360100001009B
:1045600043685B181468A34211D113680C4C24688B
:10457000A34208D0436814686468E3184360136872
:104580001B68036005E0064B1B68036001E01368CD
:104590000360824200D0106010BC70470000000031
:1045A00048760120547601207C3201084C760120A7
:1045B0002876012050760120C00C012062F30F22E2
:1045C00062F31F42401810F0030308D0C91A1FD32A
:1045D000DB0748BF00F8012D28BF20F8022D13008B
:1045E00030B414461546103928BF20E93C00FAD8EB
:1045F000490728BF20E90C0048BF40F8042D890076
:1046000028BF20F8022D48BF00F8012D30BC7047AC
:10461000C91818BF00F8012DCB0728BF00F8012DDD
:104620007047000062B38B0708D0521E11F8013B9F
:1046300000F8013B00F024808B07F6D1830740F09F
:10464000208000BF103A07D330B4B1E83810103AD8
:10465000A0E83810F9D230BC530724BFB1E80810E5
:10466000A0E8081044BF51F8043B40F8043BD207CF
:1046700024BF31F8022B20F8022B44BF0B780370C3
:104680007047083A07D3B1E80810083A40F8043BED
:1046900040F804CBF7D25307E4E70000EFF30980BA
:1046A000BFF36F8F244B1A681EF0100F08BF20ED68
:1046B000108A20E9F04F106008B44FF0500080F3EA
:1046C0001188BFF34F8FBFF36F8FFEF776FD4FF06A
:1046D000000080F3118808BC19680868B0E8F04F42
:1046E0001EF0100F08BFB0EC108A80F30988BFF3EA
:1046F0006F8F7047104B19680868B0E8F04F80F36F
:104700000988BFF36F8F4FF0000080F31188704766
:104710000A480068006880F3088862B661B6BFF393
:104720004F8FBFF36F8F00DFDFF81400016841F493
:1047300070010160704700006876012008ED00E01C
:1047400088ED00E070B582B00400002C04D0E06871
:10475000002801D0012007E0DFF8083A0D220821E7
:10476000DFF8040A01F092FB002801D1072068E07D
:10477000607A0F2801D1012007E0DFF8F0390E221E
:104780000821DFF8E40901F081FB002801D10720AE
:1047900057E0A07A002808D0A07A0B2805D0A07A8C
:1047A0000C2802D0A07A092801D1012007E0DFF807
:1047B000C0390F220821DFF8B00901F067FB00289B
:1047C00001D107203DE0E0680578EDB2132D01DA54
:1047D000012007E0DFF89C3913220821DFF888095F
:1047E00001F054FB002801D107202AE0A07A00281C
:1047F00026D0A07A0B2817D1EDB2082D04DA2800B4
:10480000C0B200F01FF81BE0E0684078060069467F
:10481000E068801C01F083FB3200D2B200992800CE
:10482000C0B200F07FF80BE0A07A0C2802D0A07A8A
:10483000092803D1200001F0EFFE01E0072000E08D
:10484000062076BD10B5ADF5187D0400E4B2082C45
:1048500001DA012007E0DFF8203936220821DFF8ED
:10486000080901F013FB002801D1072057E0E4B24A
:10487000012C06D12822DFF80419684602F066FFF1
:104880003AE0E4B2022C06D12822DFF8F418684698
:1048900002F05CFF30E0E4B2032C06D12822DFF8FE
:1048A000E418684602F052FF26E0E4B2042C06D178
:1048B0002822DFF8B41B684602F048FF1CE0E4B28F
:1048C000052C06D12822DFF8A41B684602F03EFF23
:1048D00012E0E4B2062C06D12822DFF8941B6846C9
:1048E00002F034FF08E0E4B2072C05D12822DFF8FB
:1048F0006C1C684602F02AFF92A96846FDF7C0FECC
:10490000002804D00AA8FDF759FE072007E06846F2
:10491000FDF7E3FE002801D0072000E006200DF59A
:10492000187D10BD2DE9F047ADF5227D04000D0086
:104930001600E4B2082C0ED0E4B2092C0BD0E4B27D
:104940000A2C08D0E4B20B2C05D0E4B2082C04DA0F
:10495000F6B2032E01D1012007E0DFF8183B552203
:104960000821DFF8040801F091FA002801D107209E
:1049700062E1E4B2082C06D12822DFF8FC1A68466E
:1049800002F0E4FE62E0E4B2092C06D12822DFF84E
:10499000D01B684602F0DAFE58E0E4B20A2C06D1D9
:1049A0002822DFF8C01B684602F0D0FE4EE0E4B2D9
:1049B0000B2C06D12822DFF8B01B684602F0C6FE99
:1049C00044E0E4B2012C06D12822DFF8B017684693
:1049D00002F0BCFE3AE0E4B2022C06D12822DFF855
:1049E000A017684602F0B2FE30E0E4B2032C06D114
:1049F0002822DFF89017684602F0A8FE26E0E4B20D
:104A0000042C06D12822DFF8601A684602F09EFEC8
:104A10001CE0E4B2052C06D12822DFF8501A6846C3
:104A200002F094FE12E0E4B2062C06D12822DFF850
:104A3000401A684602F08AFE08E0E4B2072C05D16D
:104A40002822DFF8181B684602F080FE69461AA883
:104A5000FDF74BFD002801D00720EDE00020814646
:104A60001FFA89F9B9F11E0F80F2DB800AA91AA892
:104A7000FDF7C5FD0700FFB2002F04D01AA8FDF70F
:104A80009DFD0720D8E09DF83100002800F0C98086
:104A90009DF831002E2800F0C1800DF131008046D4
:104AA0000A220021404602F087FE8246F6B2002E1E
:104AB00038D143466A46DFF8B41A10A802F080FEE7
:104AC0000AA94046FDF7DCFD002804D01AA8FDF72E
:104AD00075FD0720B0E04046FDF7FFFD002801D03E
:104AE0000720A9E0DFF8A40CE4B210EB4400B0F812
:104AF0003202401EDFF8941CE4B211EB4401A1F82D
:104B00003202DFF8880CE4B210EB8400D0F818020F
:104B10000A99401ADFF8741CE4B211EB8401C1F861
:104B200018027BE0F6B2012E3AD1554538D3434600
:104B30006A46DFF8381A10A802F042FE0AA9404679
:104B4000FDF79EFD002804D01AA8FDF737FD0720C9
:104B500072E04046FDF7C1FD002801D007206BE060
:104B6000DFF8280CE4B210EB4400B0F83202401E2B
:104B7000DFF8181CE4B211EB4401A1F83202DFF8AF
:104B80000C0CE4B210EB8400D0F818020A99401A19
:104B9000DFF8F81BE4B211EB8401C1F818023DE024
:104BA000F6B2032E3AD1AA4538D143466A46DFF819
:104BB000BC1910A802F004FE0AA910A8FDF760FDB8
:104BC000002804D01AA8FDF7F9FC072034E010A84B
:104BD000FDF783FD002801D007202DE0DFF8AC0BA6
:104BE000E4B210EB4400B0F83202401EDFF89C1B28
:104BF000E4B211EB4401A1F83202DFF8900BE4B209
:104C000010EB8400D0F818020A99401ADFF87C1BD8
:104C1000E4B211EB8401C1F8180202E019F10109B4
:104C20001EE71AA8FDF7CAFC1FFA89F9B9F11D0F92
:104C300001D10C2000E006200DF5227DBDE8F087B3
:104C40002DE9FE4F04000D0016001F00DDF8308036
:104C5000DDF83490DDF838A0B8F1000F07D0B9F1D5
:104C6000000F04D0BAF1000F01D0012007E0DFF8F7
:104C7000203BA2220821DFF8F00401F007F9002808
:104C800001D1072044E0E4B2082C08D0E4B2092C9A
:104C900005D0E4B20A2C02D0E4B20B2C01D10120E1
:104CA00007E0DFF8F03AA3220821DFF8BC0401F0A6
:104CB000EDF8002801D107202AE0E4B2082C05D045
:104CC000E4B2092C02D0E4B20A2C0FD1CDF808A02E
:104CD000CDF80490CDF800803B0032002900C9B225
:104CE0002000C0B200F016F883460FE0E4B20B2CAF
:104CF0000AD1CDF800A04B46424631002000C0B298
:104D000000F042F9834601E0072001E05846C0B2B6
:104D1000BDE8FE8F2DE9F04FADF5177D04000D00C5
:104D200016001F00DDF88082DDF88492DDF888A28D
:104D3000B8F1000F0AD0B9F1000F07D0B9F1000F98
:104D400004D0BAF1000F01D0012007E0DFF8483AA3
:104D5000BB220821DFF8100401F098F8002801D1E7
:104D600007200DE1B9F80000002801D0012007E07C
:104D7000DFF8283ABC220821DFF8EC0301F086F8BE
:104D8000002801D10720FBE0E4B2082C05D0E4B2F2
:104D9000092C02D0E4B20A2C01D1012007E0DFF88F
:104DA000A83BBD220821DFF8C00301F06FF80028FE
:104DB00001D10720E4E0EDB2062D01DA012007E081
:104DC000DFF8883BBE220821DFF89C0301F05EF883
:104DD000002801D10720D3E0E4B2082C06D1282214
:104DE000DFF8941602A802F0B1FC12E0E4B2092C3C
:104DF00006D12822DFF8681702A802F0A7FC08E015
:104E0000E4B20A2C05D12822DFF8581702A802F0D4
:104E10009DFCDAF80000002834D1EDB2002D06D157
:104E200051462000C0B200F039FF83461CE0EDB2CD
:104E3000012D06D151462000C0B200F02FFF83465D
:104E400012E0EDB2022D08D1CAF8006051462000F0
:104E5000C0B200F023FF834606E0EDB2032D03D17C
:104E6000CAF80060062083465FFA8BFBBBF1080F8F
:104E700001D1082084E05FFA8BFBBBF1060F01D063
:104E800007207DE0DAF80000002801D0012006E0CC
:104E9000DFF8BC3AD5220821B34800F0F7FF00281C
:104EA00001D107206CE0DAF80000009002ABDFF8D7
:104EB000A42A282102A802F09DFC112202A90CA814
:104EC000FCF764FC002801D0072059E0DDF83CB273
:104ED0001FFA8BFBDAF800004FF40071484383455A
:104EE00001D2012006E0DFF8703ADC2208219E485A
:104EF00000F0CCFF002804D10CA8FDF7AAF8072089
:104F00003EE00DF10603B9F8002041460CA8FCF77D
:104F100040FD8DF804000CA8FDF79BF8BDF80600D5
:104F2000002803D09DF80400002801D0072027E0C6
:104F3000BDF80600A9F80000EDB2032D01D108204C
:104F40001EE0EDB2002D05D0EDB2012D02D0EDB284
:104F5000022D08D151462000C0B200F09FFE082863
:104F600001D108200CE0EDB2BD4202D0EDB2022D1D
:104F700005D1DAF80000002801D0082000E0062062
:104F80000DF5177DBDE8F08F2DE9F047ADF5187DE3
:104F900004000D0016001F00DDF88082002E06D0F0
:104FA000002F04D0B8F1000F01D0012006E0DFF897
:104FB000E037F52208216C4800F068FF002801D195
:104FC000072069E0E4B20B2C01D1012006E0DFF8F4
:104FD0008C39F6220821644800F058FF002801D1DE
:104FE000072059E00095DFF88035DFF8682928218F
:104FF00002A802F0FFFB112202A90CA8FCF7C6FBD5
:10500000002801D0072047E0DDF83CA21FFA8AFA09
:10501000D8F800004FF400714843824501D20120C6
:1050200006E0DFF83439FD2208214F4800F02EFF5A
:10503000002804D10CA8FDF70CF807202CE0D8F8C4
:1050400000004FF4007101FB00F10CA8FDF725F8FA
:10505000814601AB3A8831000CA8FCF79AFC8146E6
:105060000CA8FCF7F6FFBDF80400002804D05FFA96
:1050700089F9B9F1000F01D007200DE0BDF8040057
:105080003988884204D2BDF804003880082003E043
:10509000BDF80400388006200DF5187DBDE8F087C6
:1050A0002DE9F84304000D0016001F00DDF82080F4
:1050B000002E03D0002F01D0012008E0DFF8F03AE5
:1050C00040F211120821DFF8EC0A00F0DFFE0028A0
:1050D00001D1072044E0E4B2082C0BD0E4B2092C43
:1050E00008D0E4B20A2C05D0E4B20B2C02D0E4B212
:1050F000082C01DA012008E0DFF8BC3A4FF489728D
:105100000821DFF8B00A00F0C1FE002801D1072015
:1051100026E0E4B2082C05D0E4B2092C02D0E4B2B7
:105120000A2C07D13A0031002000C0B200F0A6F9E5
:10513000814613E0E4B20B2C02D0E4B2082C0BDA67
:10514000CDF800803B0032002900C9B22000C0B277
:1051500000F01AF8814601E0072001E04846C0B29D
:10516000BDE8F2833C280108041D01082025010840
:10517000BC16010808310108C42F0108D82F010806
:10518000EC2F0108003001082DE9F04FADF5317D1D
:1051900004000D0016001F00DDF8E882002E03D089
:1051A000002F01D0012008E0DFF8043A4FF4937299
:1051B0000821DFF8000A00F069FE002801D107206D
:1051C0004EE13888002801D0012008E0DFF8CC3516
:1051D00040F227120821DFF8DC0900F057FE002812
:1051E00001D107203CE1E4B20B2C02D0E4B2082C40
:1051F00001DA012008E0DFF8C4394FF49472082185
:10520000DFF8B00900F042FE002801D1072027E1B5
:10521000E4B20B2C06D12822DFF8A41901A802F071
:1052200095FA44E0E4B2012C06D12822DFF8941963
:1052300001A802F08BFA3AE0E4B2022C06D128224F
:10524000DFF8841901A802F081FA30E0E4B2032CFF
:1052500006D12822DFF8741901A802F077FA26E0B7
:10526000E4B2042C06D12822DFF8641901A802F068
:105270006DFA1CE0E4B2052C06D12822DFF854199F
:1052800001A802F063FA12E0E4B2062C06D128224B
:10529000DFF8441901A802F059FA08E0E4B2072C3B
:1052A00005D12822DFF8E41901A802F04FFAB8F17D
:1052B000000F02D10A20824601E00A2082465246AF
:1052C000D2B201A91FA8FCF761FA002801D007207B
:1052D000C6E0DDF888B21FFA8BFB4FF4007000FBCC
:1052E00008F010F50070834501D2012008E0DFF8D6
:1052F000EC3840F239120821DFF8B80800F0C6FD9A
:10530000002804D11FA8FCF7A4FE0720A8E01FFA7C
:105310008BFB59461FA8FCF7C0FE81466B463A88B6
:1053200031001FA8FCF792FC81461FA8FCF791FEF4
:10533000BDF80000002804D05FFA89F9B9F1000F28
:1053400001D007208CE0EDB2042D40F08880E4B25B
:105350000B2C13D101A800F061FDDFF8641801A83F
:10536000FDF73CFA002801D0072079E0AAA901A89E
:10537000FDF786F9002872D0072071E0E4B2082C0E
:105380006DDAE4B2012C0CD12822DFF8041915A83B
:1053900002F0DCF92822DFF82C180BA802F0D6F96D
:1053A0005DE0E4B2022C0CD12822DFF8E81815A841
:1053B00002F0CCF92822DFF810180BA802F0C6F989
:1053C0004DE0E4B2032C0CD12822DFF8CC1815A84C
:1053D00002F0BCF92822DFF8F4170BA802F0B6F9A6
:1053E0003DE0E4B2042C0BD128221F4915A802F09D
:1053F000ADF92822DFF8D8170BA802F0A7F92EE0A4
:10540000E4B2052C0BD12822184915A802F09EF908
:105410002822DFF8C0170BA802F098F91FE0E4B2C9
:10542000062C0BD12822124915A802F08FF9282248
:10543000DFF8A4170BA802F089F910E0E4B2072CFA
:105440000BD12822454915A802F080F92822DFF85F
:105450003C180BA802F07AF901E0072000E00620D2
:105460000DF5317DBDE8F08F1430010828300108BA
:105470003C300108481801084C320108F0B5ADF580
:10548000177D04000D001600002D03D0002E01D062
:10549000012008E0DFF818374FF4B9720821DFF86F
:1054A000140700F0F3FC002801D1072053E03088F6
:1054B000002801D0012007E0B84B40F27312082108
:1054C000DFF8F00600F0E2FC002801D1072042E0FE
:1054D00001A92000C0B200F083FB062801D00720FC
:1054E00039E0122201A90BA8FCF750F9002801D0DD
:1054F000072030E06B46328829000BA8FCF7A6FB9A
:1055000007000BA8FCF7A5FDBDF80000002802D09D
:10551000FFB2002F01D007201DE09C48E4B210EB41
:105520004400B0F83202401C9849E4B211EB440147
:10553000A1F832029548E4B210EB8400D0F81802CA
:10554000BDF8001010FA81F09049E4B211EB84012B
:10555000C1F8180206200DF5177DF0BD5030010886
:10556000B4310108C0310108543201085C3201082D
:105570002DE9F04FADF5237D04000D0016001F004E
:105580005FF0000A002D05D0002E03D0002F01D0BF
:10559000012008E0DFF8643840F299120821DFF8B2
:1055A000940800F073FC002801D10720EAE030885D
:1055B000002801D1012008E0DFF844384FF4CD7213
:1055C0000821DFF8700800F061FC002801D10720F5
:1055D000D8E0E4B2082C08D0E4B2092C05D0E4B23B
:1055E0000A2C02D0E4B20B2C01D1012007E0694B58
:1055F00040F29B120821DFF83C0800F047FC00282D
:1056000001D10720BEE0E4B2082C06D12822DFF841
:10561000281807A802F09AF81CE0E4B2092C06D179
:105620002822DFF8181807A802F090F812E0E4B278
:105630000A2C06D12822DFF8081807A802F086F8FD
:1056400008E0E4B20B2C05D12822DFF8F81707A8F0
:1056500002F07CF83868002802D10120824601E07F
:105660000020824607A91BA8FCF73FFF002801D0B5
:10567000072087E0002083461FFA8BFBBBF11E0F3B
:1056800063DA01A91BA8FCF7BAFF8DF800009DF8AA
:105690000000002804D01BA8FCF790FF072071E051
:1056A0009DF80D00002804D11BA8FCF787FF0820F7
:1056B00068E09DF80D002E2844D00DF10D008146C4
:1056C0000A220021484602F077F880465FFA8AFAFB
:1056D000BAF1000F04D13868404501D1012082465B
:1056E0005FFA8AFABAF1010F2CD14B4607AADFF80C
:1056F000581711A802F064F801A911A8FCF7C0FF1F
:10570000002804D01BA8FCF759FF07203AE0308896
:105710004119404600F0E8FB3088001D3080308899
:105720004119019800F0E0FB3088001D308030887E
:10573000B0F5007F06DBC7F800801BA8FCF73EFF32
:1057400006201FE01BF1010B96E71BA8FCF736FFB4
:105750003088002801D0012008E0DFF8F03640F260
:10576000CB120821DFF8CC0600F090FB002801D115
:10577000072007E01FFA8BFBBBF11D0F01D10C20A6
:1057800000E006200DF5237DBDE8F08F186A0120AA
:105790004C250108681E0108AC200108CC31010825
:1057A0002DE9F04790B004000D0016001F00002DF9
:1057B00005D0002E03D0002F01D0012008E0DFF833
:1057C0003C364FF4EC720821DFF8E80300F05EFB92
:1057D000002801D10720B3E03088002801D1012042
:1057E00008E0DFF81C3640F2D9120821DFF8C403C4
:1057F00000F04CFB002801D10720A1E0E4B2082C06
:1058000001DA012008E0DFF850364FF4ED7208218C
:10581000DFF8A00300F03AFB002801D107208FE059
:105820005FF001095FFA89F9B9F1080F80F287800A
:105830005FFA89F9B9F1010F06D12822DFF8501477
:10584000684601F083FF49E05FFA89F9B9F1020F78
:1058500006D12822DFF83C14684601F077FF3DE0CE
:105860005FFA89F9B9F1030F06D12822DFF828146D
:10587000684601F06BFF31E05FFA89F9B9F1040F76
:1058800006D12822DFF8D415684601F05FFF25E035
:105890005FFA89F9B9F1050F06D12822DFF8C015A2
:1058A000684601F053FF19E05FFA89F9B9F1060F74
:1058B00006D12822DFF8AC15684601F047FF0DE05D
:1058C0005FFA89F9B9F1070F06D12822DFF8981598
:1058D000684601F03BFF01E0072031E0CA460AA913
:1058E0006846FCF7CDFE80465FFA88F8B8F1040FF1
:1058F00004D10020824600200A9008E05FFA88F870
:10590000B8F1000F03D0FF20824600200A903088B3
:1059100041195FFA8AFA504600F0E6FA3088001D15
:105920003080308841190A9800F0DEFA3088001D76
:1059300030803088401C308019F1010972E708205E
:1059400010B0BDE8F0870000AC2201086430010807
:10595000D831010864320108D82A01081831010839
:105960002DE9F043ADF5177D04000D000020ADF8E2
:1059700000000027E4B2142C0BDBE4B2082C08D1A1
:10598000E4B2092C05D1E4B20A2C02D1E4B20B2C0A
:1059900001D0012008E0DFF8D43440F202220821CF
:1059A000DFF8900400F072FA002801D10E20FAE02E
:1059B000E4B2012C06D12822DFF8D41202A801F0AB
:1059C000C5FE80E0E4B2022C06D12822DFF8C41222
:1059D00002A801F0BBFE76E0E4B2032C06D1282237
:1059E000DFF8B41202A801F0B1FE6CE0E4B2042CBE
:1059F00006D12822DFF8641402A801F0A7FE62E0B5
:105A0000E4B2052C06D12822DFF8541402A801F0D4
:105A10009DFE58E0E4B2062C06D12822DFF844149B
:105A200002A801F093FE4EE0E4B2072C06D1282232
:105A3000DFF8341402A801F089FE44E0E4B20C2C33
:105A400006D12822DFF87C1102A801F07FFE3AE09F
:105A5000E4B20D2C06D12822DFF86C1102A801F067
:105A600075FE30E0E4B20E2C06D12822DFF85C117E
:105A700002A801F06BFE26E0E4B20F2C05D128222B
:105A8000534902A801F062FE1DE0E4B2102C05D1DA
:105A90002822504902A801F059FE14E0E4B2112C6A
:105AA00005D128224C4902A801F050FE0BE0E4B2D7
:105AB000122C06D12822DFF8D41102A801F046FEEC
:105AC00001E007206FE0012202A90CA8FBF75EFEAF
:105AD000002801D0072066E06B464FF400622900E1
