:020000040800F2
:1000000008040020013A0008253A0008293A0008AF
:100010002D3A0008313A0008353A00080000000087
:10002000000000000000000000000000393A000855
:100030003D3A000800000000413A00087938000805
:10004000453A0008493A00084D3A0008513A00087C
:10005000553A0008593A00085D3A0008613A00082C
:10006000653A0008693A00086D3A0008713A0008DC
:10007000753A0008793A00087D3A0008813A00088C
:10008000853A0008893A00088D3A0008913A00083C
:10009000953A0008993A00089D3A0008A13A0008EC
:1000A000A53A0008A93A0008AD3A0008B13A00089C
:1000B000B53A0008B93A0008BD3A0008C13A00084C
:1000C000C53A0008C93A0008CD3A0008D13A0008FC
:1000D000D53A0008D93A000885380008DD3A00080A
:1000E000E13A0008E53A0008E93A0008ED3A00086C
:1000F000F13A0008F53A0008F93A0008FD3A00081C
:10010000013B00088F380008053B0008093B000848
:10011000993800080D3B0008113B0008153B00080A
:10012000193B00081D3B0008213B0008253B000847
:10013000293B000800000000000000002D3B0008E3
:10014000313B0008353B0008393B00083D3B0008C7
:10015000413B0008453B0008493B0008A338000824
:100160004D3B0008513B0008553B0008593B000837
:100170005D3B0008613B000800000000000000003B
:10018000653B0008693B000830B58BB004000D00EA
:1001900000208DF80C0000202077200001F0D3FA19
:1001A0000020049000200590002006900020079079
:1001B000002008907620099004A983B06846182290
:1001C00001F056FC0EBC206801F07EFC200000F01F
:1001D000D9FD8DF80C009DF80C00002802D09DF888
:1001E0000C002AE0200000F024FD8DF80C009DF8A2
:1001F0000C00002802D09DF80C001EE02900200011
:1002000000F0DEFA8DF80C009DF80C00002808D1F3
:10021000B5F8540002040023200000F096FD8DF88C
:100220000C00211D83B06846182201F021FC0EBC91
:10023000206801F049FC9DF80C000BB030BD2DE9A1
:10024000F24F8CB0060014001D00169FDDF85C8094
:100250005FF0000B5FF00009DDF830A0002031688E
:10026000C862306A022806D14FF400700700640AA1
:1002700044EAC5546D0A0097102001904020029076
:10028000002003904FF4806004906946306801F0CC
:1002900044FC1021300000F0BFFE83465FFA8BFB68
:1002A000BBF1000F02D05846C0B2CEE05FF0FF3085
:1002B000059007FB08F00690902007900220089018
:1002C0000020099001200A9005A9306801F048FC3F
:1002D000B8F1020F02D31220019001E01120019029
:1002E00000946946306801F018FCB8F1020F26D37B
:1002F0001221300000F090FE83465FFA8BFBBBF1C9
:10030000000F02D05846C0B29FE03068406B40F208
:100310002A3108423AD13068406B0004F5D50020FC
:100320008146B9F1080F07D2306801F0E4FB4AF8C2
:10033000290019F10109F4E71AF1200AE5E7112172
:10034000300000F069FE83465FFA8BFBBBF1000FC3
:1003500002D05846C0B278E03068406B40F22A6163
:10036000084213D13068406B0004F5D50020814667
:10037000B9F1080F07D2306801F0BDFB4AF8290037
:1003800019F10109F4E71AF1200AE5E73068406B3A
:10039000C0050FD5B8F1020F0CD3306A002805D084
:1003A000306A012802D0306A022803D1300000F000
:1003B000FFFB83463068406B000707D50820316893
:1003C0008863042083465846C0B23EE03068406BE4
:1003D000800707D50220316888630220834658468B
:1003E000C0B232E03068406B800607D5202031680B
:1003F0008863062083465846C0B226E03068406BCA
:10040000800508D54FF40070316888630720834663
:100410005846C0B219E05FF0FF3081463068406B4B
:1004200080020CD5B9F1000F09D0306801F063FBF0
:10043000CAF800001AF1040AB9F10109EEE740F226
:10044000FF50316888635846C0B20DB0BDE8F08FE8
:100450002DE9F24F0CB48CB00400DDF864B05FF00D
:1004600000085FF0000A002500265FF000090E9FDB
:1004700000208DF8000000202168C862206A022850
:100480000AD14FF400701890DDE90C01400A40EAEF
:10049000C150490ACDE90C01189801901020029032
:1004A00040200390002004904FF48060059001A943
:1004B000206801F032FB1021200000F0ADFD8046E5
:1004C0005FFA88F8B8F1000F02D04046C0B217E1D9
:1004D000BBF1020F02D31920029001E01820029014
:1004E000DDE90C01019001A9206801F016FBBBF1C8
:1004F000020F05D31921200000F08EFD804604E094
:100500001821200000F088FD80465FFA88F8B8F1D5
:10051000000F02D04046C0B2F2E0189800FB0BF08A
:1005200082465FF0FF300690189800FB0BF00790B2
:10053000902008900020099000200A9001200B9044
:1005400006A9206801F00CFBBBF1020F3AD320682A
:10055000406B40F21A3108426FD12068406B400472
:10056000F5D5BAEB050020281ED2BAEB0500042110
:10057000B0FBF1F202FB1102002A04D1BAEB050034
:100580005FEA900904E0BAEB0500800810F1010968
:10059000002006004E45DAD23900206801F0AEFA9C
:1005A0003F1D2D1D761CF5E700200600082E06D203
:1005B00017EB8601206801F0A1FA761CF6E72037D8
:1005C0002035C4E72068406B40F21A61084234D1FC
:1005D0002068406B4004F5D5BAEB050020281ED2F8
:1005E000BAEB05000421B0FBF1F202FB1102002A74
:1005F00004D1BAEB05005FEA900904E0BAEB05000C
:10060000800810F10109002006004E45DAD23900B9
:10061000206801F073FA3F1D2D1D761CF5E70020C0
:100620000600082E06D217EB8601206801F066FA54
:10063000761CF6E720372035C4E72068406BC005FC
:100640000FD5BBF1020F0CD3206A002805D0206A19
:10065000012802D0206A022803D1200000F0A8FA65
:1006600080462068406B000707D508202168886312
:10067000042080464046C0B242E02068406B8007BC
:1006800007D5022021688863022080464046C0B218
:1006900036E02068406BC00607D5102021688863CB
:1006A000052080464046C0B22AE02068406B8005A5
:1006B00008D54FF4007021688863072080464046C3
:1006C000C0B21DE040F2FF502168886369462000F7
:1006D00000F035FF80465FFA88F8B8F1000F0DD1C1
:1006E0009DF80000072803D09DF80000062805D1DA
:1006F0006946200000F023FF8046ECE74046C0B288
:100700000FB0BDE8F08F10B504002068406BC00545
:100710000BD54FF48070216888630120A06400200D
:10072000E064200000F04AF840E02068406B800759
:1007300008D50220216888630220E064200000F0D0
:100740003EF833E02068406B000708D50820216898
:1007500088630420E064200000F031F826E020687F
:10076000406B800608D52020216888630620E0645D
:10077000200000F024F819E02068406BC00608D57E
:100780001020216888630520E064200000F017F83D
:100790000CE02068406B800508D54FF4007021689C
:1007A00088630720E064200000F009F82068C06B2F
:1007B000DFF87C1908402168C86310BD7047704796
:1007C0002DE9F003020000200023146A81F856404E
:1007D000546AA1F85440946A240E2300C3F3811490
:1007E0000C70C3F383044C7013F003048C70946A90
:1007F000C4F307442300CB70946AC4F30724230096
:100800000B7192F82840E4B223004B71D46A240E95
:1008100023001C01CC80D46AC4F307442300CC8895
:10082000C3F303152C43CC8013F00F040C72D46A6D
:10083000C4F307242300C3F3C0144C72C3F3801421
:100840008C72C3F34014CC72C3F300140C730024F5
:100850004C73146A002C02D0146A012C55D113F089
:100860000304A4020C6192F82C4023000C6954EAA2
:1008700083040C61146B240EE4B223000C69C3F3EF
:1008800081152C430C61C3F3C2040C7513F00704EB
:100890004C75146B240CE4B22300C3F342148C7522
:1008A000C3F38204CC7513F0030464000C76146B5C
:1008B000240AE4B223000C7EC3F3C0152C430C764B
:1008C0000C69641C0025C1E91245D1E912670124B5
:1008D0000D7EAD1CAC400025A4FB068904FB0799E6
:1008E00005FB0699C1E9128901240D7AAC400C651B
:1008F000D1E912670C6D0025A4FB068904FB07995A
:1009000005FB0699C1E9128932E0146A022C2DD147
:1009100092F82C40230013F03F0424040C61146B64
:10092000240EE4B223000C6954EA03240C61146B16
:10093000240CE4B223000C691C430C61146B240AE0
:10094000E4B223000C690025661C55F100075FF432
:1009500000240025A4FB068904FB079905FB0699E2
:10096000C1E912894FF400740C6501E029242000CC
:10097000C3F380144C7613F03F0464008C7692F835
:10098000304023008C7EC3F3C0152C438C7613F0CB
:100990007F04CC76546B240EE4B22300C3F3C0145E
:1009A0000C77C3F341144C77C3F382048C7713F0B4
:1009B0000304A400CC77546B240CE4B22300CC7F56
:1009C000C3F381152C43CC77C3F3401481F8204046
:1009D000002481F8214013F0010481F82240546B77
:1009E000240AE4B22300C3F3C01481F82340C3F304
:1009F000801481F82440C3F3401481F82540C3F3E8
:100A0000001481F82640C3F3810481F8274013F0D5
:100A1000030481F8284092F834402300C3F34604CD
:100A200081F82940012481F82A40946B240EE4B215
:100A3000230081F82C30946B240CE4B223001C02B8
:100A4000CC85946B240AE4B22300CC8D1C43CC8566
:100A500092F8384023001C060C63D46B240EE4B2D9
:100A600023000C6B54EA03440C63D46B240CE4B2F3
:100A700023000C6B54EA03240C63D46B240AE4B205
:100A800023000C6B1C430C6392F83C40230081F85C
:100A90003430146C240EE4B2230081F83530146C29
:100AA000240CE4B223001C068C63146C240AE4B208
:100AB00023008C6B54EA03448C6392F8404023007B
:100AC0008C6B54EA03248C63546C240EE4B2230030
:100AD0008C6B1C438C63546C240CE4B2230091F89F
:100AE0003C40C3F303152C4381F83C4013F00F0442
:100AF0002402CC87546C240AE4B22300CC8F1C431C
:100B0000CC8792F844402300C3F3460481F8404068
:100B1000012481F84140C0B2BDE8F003704770B5D0
:100B20008AB005000E000024286A032804D127207B
:100B300004002000C0B239E0286A002805D0286AE5
:100B4000012802D0286A02282ED1B6F5805F02D192
:100B50002720040010E0B6F5006F04D1280000F053
:100B600076FB040008E0002E04D1280000F0C7FB4B
:100B7000040001E026200400E4B2002C14D16868CF
:100B80000390A8680490E868059006966869079045
:100B9000A869089003A983B06846182200F068FF8E
:100BA0000EBC286800F090FF2000C0B20AB070BDF3
:100BB00030B585B004000025002000900C20019085
:100BC00040200290002003904FF48060049069461A
:100BD000206800F0A2FF0C21200000F01DFA0500A3
:100BE0002800C0B205B030BD38B50400042520008F
:100BF00000F00DF80500EDB2042D01D1002005E054
:100C0000EDB2FF2D01D1022000E0012032BD10B570
:100C100082B00400002000906946200000F06EF9C8
:100C2000002801D0FF2003E00098400A10F00F00D8
:100C300016BD30B587B0040000250120ADF80000D6
:100C4000206800F066FF002804D125200500280058
:100C5000C0B278E0206A042828D000200190022049
:100C60000290C0200390002004904FF48060059013
:100C700001A9206800F051FF200000F073FA050080
:100C8000EDB2002D02D02800C0B25CE0002000F0E0
:100C90005CFFA063042000F058FFE063082000F030
:100CA00054FF20640C2000F050FF6064206A00288C
:100CB00008D0206A012805D0206A062802D0206AC0
:100CC000022813D1032002904020039001A920683C
:100CD00000F023FF6A460321200000F066FA0500B9
:100CE000EDB2002D02D02800C0B22CE0206A04280A
:100CF00027D0BDF800006062606A000401900920FE
:100D00000290C020039001A9206800F006FF200097
:100D100000F028FA0500EDB2002D02D02800C0B284
:100D200011E0002000F011FFA062042000F00DFF90
:100D3000E062082000F009FF20630C2000F005FFAE
:100D400060632800C0B207B030BDF0B585B00600C2
:100D500014001D00002700940720019040200290FD
:100D6000002003904FF4806004906946306800F0E2
:100D7000D4FE0721300000F04FF907003800C0B260
:100D800005B0F0BD2DE9F04186B0040000208DF8DB
:100D900000000025002600275FF000080020DFF893
:100DA00008190860206800F0AFFE012000F02CFF59
:100DB0000120DFF8F4180860002001900020029064
:100DC00000200390002004904FF48060059001A95A
:100DD000206800F0A2FE200000F0BFF88DF80000AF
:100DE0009DF80000002802D09DF8000082E04FF43A
:100DF000D5700190082002904020039001A920683E
:100E000000F08BFE200000F0CDF88DF800009DF87A
:100E10000000002804D1012020625FF0804080465D
:100E2000002001903720029001A9206800F075FE93
:100E30003721200000F0F0F88DF800009DF8000048
:100E4000002855D1002F45D14FF6FF70864241D280
:100E50000020019037200290402003900020049051
:100E60004FF48060059001A9206800F056FE3721FC
:100E7000200000F0D1F88DF800009DF80000002857
:100E800002D09DF8000035E0DFF8200850EA0800A5
:100E900001902920029040200390002004904FF4FC
:100EA0008060059001A9206800F037FE200000F066
:100EB00041F98DF800009DF80000002802D09DF84F
:100EC000000017E0002000F040FE0500E80F0700DA
:100ED000761CB7E74FF6FF70864205D31B208DF8CE
:100EE00000009DF8000005E0680001D502202062A6
:100EF0009DF8000006B0BDE8F081000070B586B036
:100F000004000D000026002D04D12620060030002C
:100F1000C0B220E0606A000400900D2001904020E3
:100F20000290002003904FF480600490694620688E
:100F300000F0F3FD0D21200000F06EF80600F6B27F
:100F4000002E02D03000C0B205E0002000F0FDFD10
:100F500028603000C0B206B070BD30B4010000207F
:100F60005FF4803423000C68646BE40914F001041E
:100F70002200002B09D0002A07D10C68646BE40919
:100F800014F0010422005B1EF3E7002B03D10324BD
:100F90002000C0B204E040F2FF540D68AC63C0B260
:100FA00030BC704730B4010029205FF480330C68F6
:100FB000646B14F0450F01D0012200E00022002AEA
:100FC0000BD1002B09D00C68646B14F0450F01D0D5
:100FD000012200E000225B1EF1E70C68646BA408AC
:100FE00014F001042200002B01D0002A06D00324B3
:100FF000200004240D68AC63C0B20BE00C68646B85
:10100000640606D50024200040240D68AC63C0B2FD
:1010100000E0C0B230BC7047F8B504000D000026F7
:101020002068406B10F0450FFAD02068406B4007F5
:1010300007D5032006000420216888633000C0B271
:1010400073E02068406BC00707D50120060001202F
:10105000216888633000C0B267E0206800F072FD4C
:10106000EDB2A84204D0102006003000C0B25CE00F
:1010700040F2FF5021688863002000F066FD070001
:10108000DFF82C06074202D13000C0B24DE0002F3D
:1010900001D51C2049E0780001D5092045E0B800C1
:1010A00001D50A2041E0F80001D50B203DE03801D0
:1010B00001D50C2039E0780101D50D2035E0F8018B
:1010C00001D50E2031E0380201D50F202DE0780245
:1010D00001D5102029E0B80201D5112025E0F80241
:1010E00001D5122021E0380301D513201DE078033B
:1010F00001D5142019E0B80301D5152015E0F80337
:1011000001D5162011E0380401D517200DE0780430
:1011100001D5182009E0B80401D5192005E03807E9
:1011200001D51A2001E03000C0B2F2BD000000007D
:10113000C53CFFFF010000200A68526B12F0450F0A
:10114000FAD00A68526B520706D503221000042217
:101150000B689A63C0B204E040F2FF520B689A63D6
:10116000C0B27047010000200A68526B12F0450FB0
:10117000FAD00A68526B520706D5032210000422E7
:101180000B689A63C0B20FE00A68526BD20706D5AB
:101190000122100001220B689A63C0B204E040F201
:1011A000FF520B689A63C0B270472DE9F04104000A
:1011B0000D00160000272068406B10F0450FFAD094
:1011C0002068406B400707D50320070004202168F2
:1011D00088633800C0B238E02068406BC00707D58C
:1011E000012007000120216888633800C0B22CE08C
:1011F000206800F0A7FCEDB2A84204D01020070040
:101200003800C0B221E040F2FF502168886300201E
:1012100000F09BFC804618F4604F05D15FEA18404F
:1012200030803800C0B210E05FEA884001D513205A
:101230000BE05FEA484001D5102006E05FEA084075
:1012400001D50F2001E03800C0B2BDE8F08130B513
:1012500087B00400002568460021002206C0083837
:10126000002000F072FC800104D50E20050028004B
:10127000C0B242E06946200000F099F80500EDB2E6
:10128000002D02D02800C0B237E00198400330D5CD
:10129000606A0004029037200390402004900020F0
:1012A00005904FF48060069002A9206800F035FC9C
:1012B00037212000FFF7B0FE0500EDB2002D02D06F
:1012C0002800C0B219E0022002900620039002A973
:1012D000206800F022FC06212000FFF79DFE05009B
:1012E000EDB2002D02D02800C0B206E02800C0B246
:1012F00003E0252005002800C0B207B030BD30B59E
:1013000087B00400002568460021002206C0083886
:10131000002000F01AFC800104D50E2005002800F2
:10132000C0B242E06946200000F041F80500EDB28D
:10133000002D02D02800C0B237E00198C00330D59C
:10134000606A00040290372003904020049000203F
:1013500005904FF48060069002A9206800F0DDFB44
:1013600037212000FFF758FE0500EDB2002D02D016
:101370002800C0B219E0002002900620039002A9C4
:10138000206800F0CAFB06212000FFF745FE05009B
:10139000EDB2002D02D02800C0B206E02800C0B295
:1013A00003E0252005002800C0B207B030BDF0B52D
:1013B0008DB004000D0000270026684600210022A1
:1013C00006C00838082002901020039040200490A6
:1013D000002005904FF48060069002A9206800F07C
:1013E0009CFB10212000FFF717FE0700FFB2002F23
:1013F00002D03800C0B2A0E0606A0004029037203A
:10140000039002A9206800F088FB37212000FFF735
:1014100003FE0700FFB2002F02D03800C0B28CE0FC
:101420005FF0FF30079008200890302009900220DC
:101430000A9000200B9001200C9007A9206800F072
:101440008FFB002002903320039002A9206800F057
:1014500064FB33212000FFF7DFFD0700FFB2002F00
:1014600002D03800C0B268E02068406B40F22A61C8
:1014700008420BD12068406B8002F5D5206800F04F
:101480003AFB694641F82600761CEDE72068406B80
:10149000000707D50820216888630420070038006A
:1014A000C0B24AE02068406B800707D5022021685F
:1014B0008863022007003800C0B23EE02068406B1D
:1014C000800607D5202021688863062007003800A1
:1014D000C0B232E02068406B800508D54FF4007040
:1014E00021688863072007003800C0B225E040F279
:1014F000FF50216888630098009911F47F41090228
:1015000051EA00600099090A11F47F4108430099EB
:1015100050EA116068600198019911F47F41090255
:1015200051EA00600199090A11F47F4108430199C9
:1015300050EA116028603800C0B20DB0F0BD70B53F
:1015400086B004000D00002600200090606A0004B0
:1015500001900D20029040200390002004904FF451
:101560008060059001A9206800F0D7FA2068406BE0
:1015700010F0450FFAD02068406B400707D50320D4
:1015800006000420216888633000C0B28AE0206829
:10159000406BC00707D50120060001202168886341
:1015A0003000C0B27EE0206800F0CCFA0D2804D0F4
:1015B000102006003000C0B274E040F2FF502168F5
:1015C0008863002000F0C1FA00900098400A10F0F3
:1015D0000F00287000983649084202D13000C0B28E
:1015E00060E00098002801D51C205BE000984000D6
:1015F00001D5092056E00098800001D50A2051E06D
:101600000098C00001D50B204CE00098000101D5E6
:101610000C2047E00098400101D50D2042E00098E1
:10162000C00101D50E203DE00098000201D50F2039
:1016300038E00098400201D5102033E00098800285
:1016400001D511202EE00098C00201D5122029E01A
:101650000098000301D5132024E00098400301D531
:1016600014201FE00098800301D515201AE000988F
:10167000C00301D5162015E00098000401D51720FD
:1016800010E00098400401D518200BE00098800479
:1016900001D5192006E00098000701D51A2001E0C5
:1016A0003000C0B206B070BDA0802542000010809E
:1016B00008E0FFFD80B5032000F020FB00220021A0
:1016C0007FF00B0000F020FB002200217FF00A00D9
:1016D00000F01AFB002200217FF0090000F014FB4B
:1016E000002200217FF0030000F00EFB0022002109
:1016F0005FF0FF3000F008FB01BD10B586B00400BC
:101700002068DFF82C1388421BD100200090DFF8FE
:101710002403006850F48070DFF818130860DFF8C5
:101720001403006810F4807000900098012001906C
:10173000032002900020039001A9DFF8FC0200F0D2
:1017400029FB06B010BD10B586B004002068DFF894
:10175000EC12884237D100200090DFF8D8020068F0
:1017600050F40060DFF8CC120860DFF8C8020068AF
:1017700010F40060009000984FF4F850019002209F
:10178000029000200390032004900C20059001A9F2
:10179000DFF8AC0200F0FEFA042001900220029073
:1017A00000200390032004900C20059001A9DFF88D
:1017B000940200F0EFFA00220021312000F0A4FA98
:1017C000312000F0B4FA06B010BD10B586B00400A8
:1017D0002068DFF87412884220D100200090DFF8E2
:1017E0005402006850F48050DFF848120860DFF8B7
:1017F0004402006810F4805000900098E0200190AE
:101800000220029000200390032004900520059000
:1018100001A9DFF8380200F0BDFA43E02068DFF8E4
:10182000301288421ED100200090DFF828020068A4
:1018300050F48040874908608648006810F4804072
:10184000009000984FF46040019002200290002028
:101850000390032004900520059001A9764800F02C
:1018600099FA1FE020687C4988421BD10020009033
:101870007848006850F40040764908607548006870
:1018800010F400400090009838200190022002904F
:1018900000200390032004900620059001A96648CB
:1018A00000F078FA06B010BD10B586B004002068CC
:1018B0006A49884224D1002000906648006850F4AC
:1018C0000020644908606348006810F4002000901C
:1018D0000098032001900220029001200390032031
:1018E00004900820059001A9584800F053FA0022FE
:1018F0000021342000F008FA342000F018FA94E0B7
:101900002068574988421DD100200090494800684E
:1019100050F01000474908604648006810F0100079
:10192000009000984FF4C0600190022002900120C6
:101930000390032004900720059001A9434800F07C
:1019400029FA72E020684749884224D1002000909B
:101950004048006850F400303E4908603D48006847
:1019600010F40030009000980C20019002200290AA
:1019700001200390032004900720059001A933481B
:1019800000F008FA00220021262000F0BDF92620F0
:1019900000F0CDF949E02068334988421DD100208C
:1019A00000902C48006850F480202A49086029489B
:1019B000006810F48020009000984FF4406001907F
:1019C000022002900120039003200490072005903C
:1019D00001A9194800F0DEF927E020682349884270
:1019E00023D1002000901348006850F020001149D6
:1019F00008601048006810F0200000900098C02097
:101A000001900220029001200390032004900820FE
:101A1000059001A90A4800F0BDF9002200214720E5
:101A200000F072F9472000F082F906B010BD000006
:101A3000002001404438024000040240002C0140D4
:101A400000080240000C024000300140000002404B
:101A50000038004040380240003C0040004C00404C
:101A600000100140004400400048004000140140C4
:101A7000103A07D330B4B1E83810103AA0E8381063
:101A8000F9D230BC530724BFB1E80810A0E8081011
:101A900044BF51F8043B40F8043BD20724BF31F85F
:101AA000022B20F8022B44BF0B7803707047083AD2
:101AB00007D3B1E80810083A40F8043B40F804CBDB
:101AC000F7D25307E4E700000EB4010000220098AB
:101AD000019B1843029B1843039B1843049B184324
:101AE000059B184302434868294B1840104348603F
:101AF000002003B07047D0F88000704702000868EB
:101B0000C2F8800000207047010003200860002018
:101B10007047006810F00300704710B40200002303
:101B20000868906048688C682043CC6820430C6942
:101B300020430343D068000B00031843D06000200B
:101B400010BC70470069C0B2704781B0010000202E
:101B500000901048401800900098006801B070474D
:101B600010B40200002308685062486890628868D8
:101B7000CC6820430C6920434C6920430343D06A5E
:101B800030F0F7001843D062002010BC704700000E
:101B90000081FFFF142C014080B52248006850F4FA
:101BA0000070204908601F48006850F480601D499B
:101BB00008601C48006850F480701A4908600320CF
:101BC00000F09CF8002000F004F8FFF773FD0020FF
:101BD00002BD10B5040000F0B0FC4FF47A71B0FB08
:101BE000F1F000F0ABF8002221005FF0FF3000F0D0
:101BF0008BF8002010BD0C480068401C0A490860A2
:101C0000704709480068704711B581B00024FFF79C
:101C1000F8FF0400FFF7F5FF001B01998842F9D394
:101C200013BD0000003C02406007002010F00702D6
:101C30004D4B1B6819004FF6FF0319404B4B53EAFD
:101C400002231943484B1960704747480068C0F3A6
:101C500002207047012110F01F029140444A40B217
:101C6000430942F82310704710B440B2002808D549
:101C70000A01404B40B210F00F04E31803F8042CA3
:101C800003E00A013C4B40B2C25410BC704770B430
:101C9000030013F00704D4F10706052E01D3042036
:101CA00001E0D4F10700261D072E01D2002500E037
:101CB000E51E012616FA00F0401E0840A84001214A
:101CC000A940491E1140084370BC704710B504007C
:101CD000601EB0F1807F01D301200EE0601E274915
:101CE00008600F215FF0FF30FFF7BEFF002024499E
:101CF0000860072023490860002010BD10B50400CB
:101D00002000FFF793FF10BDF8B504000D0016008A
:101D10000027FFF79AFF0700320029003800FFF77D
:101D2000B6FF0100200040B2FFF79EFFF1BD10B5E5
:101D30000400200040B2FFF78DFF10BD10B5040075
:101D40002000FFF7C3FF10BD042806D10D49096824
:101D500051F004010B4A116005E00A49096831F0AD
:101D60000401084A116070470CED00E00000FA051C
:101D700000E100E018ED00E000E400E014E000E025
:101D800018E000E010E000E080B500F001F801BDCF
:101D900070470000F8B4002300240025002632001C
:101DA000102A80F0EC800126964033000E681E4019
:101DB00034009C4240F0E1804E68022E02D04E6812
:101DC000122E16D1D60810EB8606366A35000F267D
:101DD00012F00707FFB2BF00BE40B5430E6912F014
:101DE0000707FFB2BF00BE403543D60810EB86069A
:101DF00035620668350003261700FFB27F00BE403B
:101E0000B5430E7916F003061700FFB27F00BE40FF
:101E1000354305604E68012E08D04E68022E05D06D
:101E20004E68112E02D04E68122E19D186683500E8
:101E300003261700FFB27F00BE40B543CE681700EF
:101E4000FFB27F00BE4035438560466835000126FD
:101E50009640B5434E68C6F300169640354345603C
:101E6000C668350003261700FFB27F00BE40B543A9
:101E70008E681700FFB27F00BE403543C5604E68D4
:101E8000F6007AD500260096434E366856F4804612
:101E9000414F3E60404E366816F480460096009EE4
:101EA0003E4E970856F8276035000F2612F00307BC
:101EB000FFB2BF00BE40B543394EB04201D100264B
:101EC00028E0384EB04201D1012623E0364EB04220
:101ED00001D102261EE0354EB04201D1032619E0A1
:101EE000334EB04201D1042614E0324EB04201D14B
:101EF00005260FE0304EB04201D106260AE02F4EF3
:101F0000B04201D1072605E02D4EB04201D108268E
:101F100000E00926F6B212F00307FFB2BF00BE4090
:101F200035431E4E970846F82750264E3668350032
:101F3000A5434E68F60300D52543224E3560224E58
:101F400036683500A5434E68B60300D525431E4EBE
:101F500035601E4E36683500A5434E68F60200D542
:101F600025431A4E35601A4E36683500A5434E6833
:101F7000B60200D52543164E3560521C10E7F1BC61
:101F80007047D2B2002A02D089B2816102E089B2E0
:101F90000B04836170470000443802400838014058
:101FA000000002400004024000080240000C024011
:101FB000001002400014024000180240001C0240C1
:101FC00000200240003C0140043C0140083C01402C
:101FD0000C3C014070B582B0040000252078C00799
:101FE00041D5DFF8C005006810F00C0004280BD0C4
:101FF000DFF8B005006810F00C0008280ED1DFF8FB
:10200000A8050068400209D5DFF8A0050068800334
:1020100029D56068002826D1012076E16068DFF8C4
:1020200090150870606800280ED0FFF7EAFD0500E3
:10203000DFF878050068800315D4FFF7E2FD401B48
:102040006528F5D3032060E1FFF7DBFD0500DFF82D
:102050005C050068800306D5FFF7D3FD401B6528AB
:10206000F5D3032051E12078800766D5DFF83405E9
:10207000006810F00C0F0BD0DFF82805006810F096
:102080000C0008281FD1DFF82005006840021AD490
:10209000DFF818050068800704D5E068012801D042
:1020A000012032E1DFF8040500685FF0F851B1FA71
:1020B00081F130F0F800226912FA01F10843DFF8EB
:1020C000EC14086039E0E068002823D00120DFF834
:1020D000E4140860FFF795FD0500DFF8D004006800
:1020E000800706D4FFF78DFD401B0328F5D303209E
:1020F0000BE1DFF8B80400685FF0F851B1FA81F144
:1021000030F0F800226912FA01F10843DFF89C145C
:10211000086012E00020DFF89C140860FFF771FDF2
:102120000500DFF888040068800706D5FFF769FD21
:10213000401B0328F5D30320E7E02078000728D5CB
:102140006069002812D00120DFF86C140860FFF7E6
:1021500058FD0500DFF864040068800719D4FFF714
:1021600050FD401B0328F5D30320CEE00020DFF80C
:1021700048140860FFF745FD0500DFF840040068DB
:10218000800706D5FFF73DFD401B0328F5D303204C
:10219000BBE02078400750D500200090DFF82004F5
:1021A000006850F08050DFF818140860DFF8100461
:1021B000006810F0805000900098DFF80804006874
:1021C00050F48070DFF8FC130860FFF71AFD05007B
:1021D000DFF8F0030068C00506D4FFF712FD401BCE
:1021E0000328F5D3032090E0A068DFF8DC13087023
:1021F000A068002810D0FFF704FD0500DFF8C80331
:102200000068800719D4FFF7FCFC401B41F28931BC
:102210008842F3D3032078E0FFF7F3FC0500DFF8F2
:10222000A8030068800708D5FFF7EBFC401B41F2CC
:1022300089318842F3D3032067E0A069002863D086
:10224000DFF86003006810F00C0008285AD0A0697D
:10225000022844D10020DFF874130860FFF7D1FC96
:102260000500DFF848030068800106D5FFF7C9FCC8
:10227000401B0328F5D3032047E0DFF85403B0FAEE
:1022800080F24FF44040B0FA80F0F021B1FA81F1D1
:10229000E369266A3343666A16FA02F21A43A36AAE
:1022A0005B085B1E13FA00F01043E26A12FA01F1B8
:1022B0000843DFF8F41208600120DFF8101308600B
:1022C000FFF79FFC0500DFF8E402006880011BD4E3
:1022D000FFF797FC401B0328F5D3032015E00020EF
:1022E000DFF8E8120860FFF78CFC0500DFF8BC029D
:1022F0000068800108D5FFF784FC401B0328F5D354
:10230000032002E0012000E0002076BD70B504004B
:102310000D000026DFF8BC02006810F00F00A84294
:102320000BD2DFF8B0020570DFF8A802006810F0E9
:102330000F00A84201D00120ACE02078800709D529
:10234000DFF86002006830F0F000A1680843DFF8B1
:10235000541208602078C0076ED56068012806D145
:10236000DFF848020068800315D4012092E060681D
:10237000022802D06068032806D1DFF83002006826
:10238000800108D4012085E0DFF820020068800782
:1023900001D401207EE0DFF80C0200688008800094
:1023A00061680843DFF8FC110860FFF72AFC0600AB
:1023B000606801280FD1DFF8EC01006810F00C0014
:1023C000042839D0FFF71DFC801B41F28931884277
:1023D000F1D303205EE0606802280FD1DFF8C4016A
:1023E000006810F00C00082826D0FFF70AFC801BBC
:1023F00041F289318842F1D303204BE06068032821
:102400000BD1DFF8A0010068FFF7FBFB801B41F256
:1024100089318842F5D303203CE0DFF88801006869
:1024200010F00C0F08D0FFF7ECFB801B41F2893154
:102430008842F2D303202DE0DFF89801006810F005
:102440000F0085420BD2DFF88C010570DFF88401A4
:10245000006810F00F00A84201D001201AE0207897
:10246000400707D54F48006830F4E050E168084362
:102470004C4908602078000708D54A48006830F4C5
:102480006040216950EAC100464908600020FFF71A
:10249000A0FB002070BD70B40021002200230020AA
:1024A000404C246814F00C04002C04D0042C05D0FB
:1024B000082C06D03DE0484C20003CE0474C200072
:1024C00039E0394C246814F03F042100364C24686C
:1024D00064020FD5344C2468404DB5FBF1F547F646
:1024E000C07634403A4EB6FA86F6F44004FB05F462
:1024F00022000EE02C4C2468374DB5FBF1F547F671
:10250000C0763440324EB6FA86F6F44004FB05F449
:102510002200254C246814F440344FF44045B5FAA9
:1025200085F5EC40641C64002300B2FBF3F420004A
:1025300001E0294C200070BC704780B5FFF7ABFF6D
:10254000184909685FF07062B2FA82F2244B11F008
:10255000F001D140C95CC8402249086021480068A8
:1025600002BD80B5FFF7E9FF0E4909685FF460120C
:10257000B2FA82F21A4B11F4E051D140C95CC84062
:1025800002BD80B5FFF7D9FF064909685FF4E02274
:10259000B2FA82F2124B11F46041D140C95CC840DA
:1025A00002BD0000083802400438024000380240F2
:1025B0000238024000004742800E47427438024011
:1025C00040380240007000407038024060004742CE
:1025D0000000FE03003C02400024F400001BB70092
:1025E000F03900080000002010B50400002C01D1D3
:1025F000012033E0A0690028FFD194F839000028B9
:1026000005D1002084F838002000FFF74DF9242080
:1026100084F839002068C06830F400502168C86030
:10262000200000F073F92068006930F490402168C0
:1026300008612068406930F02A00216848612068FC
:10264000C06850F400502168C8600020E06320207A
:1026500084F83900202084F83A00002010BD70B5BD
:1026600082B00400002500262068006810F00100F8
:1026700005002068C06810F480700600002D0ED0A0
:10268000002E0CD000200090206800680090206888
:10269000406800900098E06B50F00100E063206813
:1026A0000068400810F0010005002068406910F043
:1026B00001000600002D0ED0002E0CD0002000904E
:1026C0002068006800902068406800900098E06BE7
:1026D00050F00400E06320680068800810F00100FA
:1026E00005002068406910F001000600002D0ED0A2
:1026F000002E0CD000200090206800680090206818
:10270000406800900098E06B50F00200E0632068A1
:102710000068C00810F0010005002068406910F052
:1027200001000600002D0ED0002E0CD000200090DD
:102730002068006800902068406800900098E06B76
:1027400050F00800E06320680068400910F00100C4
:1027500005002068C06810F020000600002D04D09D
:10276000002E02D0200000F07BF820680068C0092D
:1027700010F0010005002068C06810F0800006001D
:10278000002D04D0002E02D0200000F022F8206896
:102790000068800910F0010005002068C06810F092
:1027A00040000600002D04D0002E02D0200000F0D2
:1027B00047F8E06B002808D0202084F8390020205A
:1027C00084F83A00200000F003F873BD70477047AA
:1027D0007047010091F8390021282FD18868B0F5A1
:1027E000805F11D1086A02001088C005C00D0B6817
:1027F00058600869002803D1086A801C086209E053
:10280000086A401C086205E0086A431C0B620078F5
:102810000B685860C88C401EC884C88C00280BD137
:102820000868C06830F080000B68D8600868C0682D
:1028300050F040000B68D860002000E00220704794
:1028400010B504002068C06830F040002168C860FE
:10285000202084F839002000FFF7B8FF002010BDC9
:1028600038B5040094F83A0022284DD1A068B0F59C
:10287000805F15D1A06A05002069002808D1206872
:102880004068C005C00D2880A06A801CA06219E0C5
:1028900020684068C0B22880A06A401CA06211E095
:1028A0002069002806D1A06A411CA16221684968FC
:1028B000017007E0A06A411CA1622168496811F01B
:1028C0007F010170E08D401EE085E08D002819D168
:1028D0002068C06830F020002168C8602068C068A7
:1028E00030F480702168C86020684069400840006A
:1028F00021684861202084F83A002000FFF767FF34
:10290000002002E0002000E0022032BD2DE9F84363
:102910000400002520680069050035F44055E06892
:102920000543206805612068C0680500BC48054073
:10293000A0682169084361690843E16908430543C8
:102940002068C56020684069050035F44075A069BD
:10295000054320684561E069B0F5004F40F0B08064
:102960002068B049884203D02068AF49884253D1DB
:10297000FFF707FE8146FFF704FE8046FFF701FEE2
:102980000700FFF7FEFD0600FFF7FBFD192101FB25
:1029900009F162685200B1FBF2F16422B1FBF2F17D
:1029A000192202FB08F263685B00B2FBF3F2192301
:1029B00003FB07F367687F00B3FBF7F36427B3FB00
:1029C000F7F3642707FB1322D20032326423B2FBF1
:1029D000F3F212F0F802520012EB0111192202FB7D
:1029E00006F263685B00B2FBF3F219235843636895
:1029F0005B00B0FBF3F06423B0FBF3F0642303FB54
:102A00001020C00032306422B0FBF2F010F007005A
:102A100040182168886000E1FFF7A3FD8146FFF7B9
:102A2000A0FD8046FFF79DFD0700FFF79AFD060019
:102A3000FFF797FD192101FB09F162685200B1FB14
:102A4000F2F16422B1FBF2F1192202FB08F2636891
:102A50005B00B2FBF3F2192303FB07F367687F0007
:102A6000B3FBF7F36427B3FBF7F3642707FB1322E9
:102A7000D20032326423B2FBF3F212F0F8025200B9
:102A800012EB0111192202FB06F263685B00B2FB34
:102A9000F3F21923584363685B00B0FBF3F064233F
:102AA000B0FBF3F0642303FB1020C000323064223B
:102AB000B0FBF2F010F00700401821688860ACE02D
:102AC00020685849884203D020685749884252D12B
:102AD000FFF757FD8146FFF754FD8046FFF751FD94
:102AE0000700FFF74EFD0600FFF74BFD192101FB24
:102AF00009F162689200B1FBF2F16422B1FBF2F1DC
:102B0000192202FB08F263689B00B2FBF3F219235F
:102B100003FB07F36768BF00B3FBF7F36427B3FB5E
:102B2000F7F3642707FB1322120132326423B2FB4E
:102B3000F3F212F0F00212EB0111192202FB06F27D
:102B400063689B00B2FBF3F21923584363689B0050
:102B5000B0FBF3F06423B0FBF3F0642303FB10201D
:102B6000000132306422B0FBF2F010F00F00401888
:102B70002168886051E0FFF7F4FC8146FFF7F1FC23
:102B80008046FFF7EEFC0700FFF7EBFC0600FFF7BF
:102B9000E8FC192101FB09F162689200B1FBF2F136
:102BA0006422B1FBF2F1192202FB08F263689B0078
:102BB000B2FBF3F2192303FB07F36768BF00B3FB13
:102BC000F7F36427B3FBF7F3642707FB1322120123
:102BD00032326423B2FBF3F212F0F00212EB011175
:102BE000192202FB06F263689B00B2FBF3F2192381
:102BF000584363689B00B0FBF3F06423B0FBF3F031
:102C0000642303FB1020000132306422B0FBF2F099
:102C100010F00F00401821688860BDE8F1830000C3
:102C2000F369FFFF001001400014014080B5FEF77A
:102C3000B3FF00F019F800F0F0F900F0B0F800F080
:102C400056F900F090F900F0ACF900F0C8F900F086
:102C500099FA00F06AF900F0F4F800F0BEF800F01C
:102C60001BF900F05CF8FEE700B593B0002000907F
:102C7000DFF8A804006850F08050DFF8A014086066
:102C8000DFF89804006810F0805000900098002051
:102C90000090DFF88C04006850F48040DFF8801466
:102CA0000860DFF87C04006810F480400090009811
:102CB000012006900120079002200C905FF4800014
:102CC0000D9008200E90E0200F9002201090072019
:102CD000119006A8FFF77EF90F20019002200290C4
:102CE000002003904FF4A05004904FF480500590C2
:102CF000052101A8FFF70AFBFFF71FFC4FF47A71CB
:102D0000B0FBF1F0FFF71AF80420FFF71DF80022DE
:102D100000215FF0FF30FEF7F7FF13B000BD00B5F4
:102D200085B0DFF80004DFF8001408600020DFF849
:102D3000F81348600020DFF8F01388600020DFF807
:102D4000E81308610020DFF8E01388610020DFF855
:102D5000D81308620020DFF8D013C8620020DFF823
:102D6000C813C8600120DFF8C013C8610020DFF875
:102D7000B81308630120DFF8B0134861DFF8A80337
:102D800000F00EFA0820009001200190002002902F
:102D90006946DFF8940300F036FA05B000BDDFF8AD
:102DA0008C03DFF88C1308600020DFF88413486080
:102DB0000020DFF87C1388600020DFF87413C860FF
:102DC0000020DFF86C1308610020DFF8641348610D
:102DD0000020DFF85C138861704780B5DFF854038A
:102DE000DFF8541308604FF48270DFF84C1348602A
:102DF0000020DFF8441388600020DFF83C13C8602F
:102E00000020DFF8341308610020DFF82C1348613C
:102E10004FF40070DFF8201388610020DFF81813EA
:102E2000C8610020C44908620020C34948620020EC
:102E3000C14988620A20C049C862BF4800F064FBEB
:102E400001BD80B5BD48BE4908604FF48270BC49E1
:102E500048600020BA4988600020B949C860002055
:102E6000B74908610020B64948614FF40070B44981
:102E700088610020B249C8610020B1490862002081
:102E8000AF4948620020AE4988620A20AC49C86256
:102E9000AB4800F039FB01BD80B5AA48AA490860DB
:102EA0004FF48270A84948600020A749886000203C
:102EB000A549C8600020A44908610020A2494861D2
:102EC0004FF40070A049886100209F49C86100202C
:102ED0009D49086200209C49486200209A49886206
:102EE0000A209949C862984800F00EFB01BD80B5E0
:102EF0009648974908604FF416509549486000205D
:102F00009349886000209249C86000209049086178
:102F10000C208F49486100208D49886100208C4930
:102F2000C8618B48FFF760FB01BD80B589488A49BD
:102F300008605FF4E1308849486000208649886075
:102F400000208549C8600020834908610C2082491F
:102F5000486100208049886100207F49C8617E481F
:102F6000FFF742FB01BD80B57C487D4908604FF406
:102F700016507B49486000207949886000207849D4
:102F8000C8600020764908610C207549486100201E
:102F90007349886100207249C8617148FFF724FBBA
:102FA00001BD80B56F48704908605FF4E1306E493B
:102FB000486000206C49886000206B49C860002090
:102FC000694908610C2068494861002066498861A8
:102FD00000206549C8616448FFF706FB01BD80B564
:102FE0006248634908604FF4165061494860002008
:102FF0005F49886000205E49C86000205C49086124
:103000000C205B49486100205949886100205849DB
:10301000C8615748FFF7E8FA01BD00B587B0002046
:1030200000905448006850F004005249086051482C
:10303000006810F0040000900098002000904D48B7
:10304000006850F080004B4908604A48006810F062
:10305000800000900098002000904648006850F0E2
:103060000100444908604348006810F001000090E6
:103070000098002000903F48006850F002003D4951
:1030800008603C48006810F00200009000980020A2
:1030900000903848006850F008003649086035480C
:1030A000006810F008000090009800223821324893
:1030B000FEF767FF00224FF48E513048FEF761FFA4
:1030C00000224FF4C8512E48FEF75BFF38200190D4
:1030D00001200290002003900020049001A92648BE
:1030E000FEF758FE4FF48E50019001200290002010
:1030F00003900020049001A92048FEF74BFE4FF4F6
:10310000C8500190012002900020039000200490FC
:1031100001A91B48FEF73EFE07B000BD4038024043
:103120000070004000200140C8050020002C014034
:103130000804002000300140C00400200038004096
:1031400018050020003C004070050020004C0040A5
:1031500010060020001001405006002000440040EE
:103160009006002000480040D006002000140140D6
:1031700010070020303802400008024000040240DE
:103180000000024080B50349034800F039FA0349C2
:10319000087001BD5C070020DC39000864070020CE
:1031A00038B504000025002C01D101202AE0A06AD6
:1031B000DFF840138842206C002807D100206064AB
:1031C000002084F83C002000FEF797FA206CC0062F
:1031D00011D4206C30F4885050F00200206420009C
:1031E00000F0D3F800206064206C30F0020050F052
:1031F0000100206401E001200500002084F83C006B
:103200002800C0B232BD38B402000020009092F80D
:103210003C00012801D10220B5E0012082F83C00E9
:1032200008680A2818D31068C06807230C680A3C8D
:10323000032514FB05F4A34098431368D860106875
:10324000C0688B680C680A3C032514FB05F4A34096
:1032500018431368D86013E01068006907230C68EE
:1032600003256C43A34098431368186110680069F4
:103270008B680C6803256C43A340184313681861DE
:103280004868072818D21068406B1F234C68641EDA
:10329000052514FB05F4A340984313685863106890
:1032A000406B0B884C68641E052514FB05F4A34095
:1032B00018431368586333E048680D2818D2106823
:1032C000006B1F234C68E41F052514FB05F4A34085
:1032D0009843136818631068006B0B884C68E41FF0
:1032E000052514FB05F4A34018431368186317E081
:1032F0001068C06A1F234C680D3C052514FB05F4BB
:10330000A34098431368D8621068C06A0B884C6861
:103310000D3C052514FB05F4A34018431368D8623F
:103320001068784B984208D10868122805D1744873
:10333000006850F48000724B18601068714B98421E
:103340001DD10868102802D00868112817D16C48D0
:10335000006850F400006A4B1860086810280ED10D
:1033600065480068654BB0FBF3F00A2358430090B2
:103370000098002803D00098401E0090F8E7002035
:1033800082F83C00002032BC70475D49096831F486
:1033900040315B4A11605A49096842681143584AF2
:1033A00011600168496831F48071026851600168F8
:1033B0004968026951EA022102685160016849685E
:1033C00031F04071026851600168496882681143B8
:1033D000026851600168896831F400610268916097
:1033E00001688968C268114302689160816A414A34
:1033F000914218D00168896831F07061026891606B
:1034000001688968826A114302689160016889686D
:1034100031F040510268916001688968C26A1143C5
:10342000026891600BE00168896831F070610268A0
:1034300091600168896831F04051026891600168CB
:10344000896831F0020102689160016889688269C7
:1034500051EA420102689160016A002919D00168AD
:10346000496851F40061026851600168496831F4AB
:103470006041026851605FF4E021B1FA81F10268B5
:103480005268436A5B1E13FA01F1114302685160EE
:1034900005E00168496831F4006102685160016823
:1034A000C96A31F470010268D1620168C96AC269EF
:1034B000521E51EA02510268D1620168896831F4F2
:1034C00000710268916001688968026B51EA4221CB
:1034D000026891600168896831F4806102689160D6
:1034E00001688968426951EA8221026891607047E7
:1034F000000000000100000F0000002040420F000B
:10350000042301400020014010B50400002C01D12B
:10351000012047E0606A0028A06AB0F5005F94F8D7
:103520005100002805D1002084F850002000FEF74B
:103530004CF9022084F851002068006830F0400007
:10354000216808606068A1680843E1680843216950
:10355000084361690843A16911F400710843E169F6
:103560000843216A0843A16A084321680860A069EA
:10357000000C10F00400616A084321684860A06AEA
:10358000B0F5005F02D1E06A216808612068C06977
:1035900030F400602168C86100206065012084F873
:1035A0005100002010BD0000F0B4030001200024F1
:1035B000184D6D7A022D20DA0025164E154F7F7AB0
:1035C000BD55144D134E767A15EB86056B60114D83
:1035D000104E767A75192A720E4D6D7A6E1C0D4F4B
:1035E0007E722C0014F130050D703A254D702F2598
:1035F0008D700025CD7000252800C0B2F0BC70474A
:1036000038B504000D00002229002000FFF7CCFF90
:1036100032BD00005007002010B5040001204649CB
:10362000087000F08BF8002805D14348007810F0AE
:10363000FE00414908704048007810BD10B50400F4
:1036400001203D49087000F0C8F8002805D13A482B
:10365000007810F0FE00384908703748007810BD37
:103660002DE9FC410400884615001E000027019644
:103670004FF4007000904FF4007000FB05F200233F
:10368000404600F07AF8002801D0012007003800F9
:10369000C0B2BDE8F6812DE9FC4104008846150062
:1036A0001E00002701964FF4007000904FF4007048
:1036B00000FB05F20023404600F077F8002801D017
:1036C000012007003800C0B2BDE8F681F0B597B020
:1036D00004000D001600012717480078C00701D527
:1036E000032026E0EDB2002D05D0022D13D005D326
:1036F000032D16D019E00020070018E0684600F0FE
:1037000071F8DDE91201400A40EAC150490A30600F
:10371000002007000BE04FF400703080002007000D
:1037200005E04FF40070306001E00420070038002D
:10373000C0B217B0F0BD00000400002010B5002496
:1037400000F05CF8012801D0012015E029492A4841
:10375000FCF71AFD0400E4B2002C0BD14FF4006119
:103760002548FDF7DCF9002802D00120040001E023
:10377000002004002000C0B210BD2DE9FC4106006D
:1037800014001D00089FDDF82480CDF80480009708
:1037900022002B0031001848FCF751FD002801D011
:1037A000012000E00020BDE8F6812DE9FC41060083
:1037B00014001D00089FDDF82480CDF804800097D8
:1037C00022002B0031000C48FCF742FE002801D0FB
:1037D000012000E00020BDE8F68180B50648FDF735
:1037E00003FA02BD10B5040021000348FCF7E8FF0E
:1037F00010BD0000680400200804002081B00120F2
:103800008DF800009DF8000001B070471248006874
:1038100050F47000104908601048006850F0010032
:103820000E49086000200E4908600C4800680D49E8
:1038300008400A4908600C480C49086007480068BD
:1038400030F48020054908600020094908605FF0D5
:10385000006008490860704788ED00E000380240C9
:1038600008380240FFFFF6FE103000240438024002
:103870000C38024008ED00E080B5FEF7BCF9FEF719
:1038800083FA01BD80B50948FEF7E9FE01BD80B5A8
:103890000748FCF738FF01BD80B50648FEF7DFFE9C
:1038A00001BD80B50448FEF7DAFE01BD9006002098
:1038B00008040020100600201007002019E050F82E
:1038C000041BCB0744BFA9F101035918121F0023A1
:1038D000042A41F8043BF9D25FEA827C0B4604D506
:1038E0004FF0000CA1F800C09B1CD10744BF002181
:1038F000197050F8042B002AE1D1704710B450F829
:10390000041B79B10268436812180830DC0744BF11
:10391000A9F10104E31852F8044B43F8044B091FC2
:10392000F9D1ECE710BC704710B50749794418315C
:10393000064C7C44163404E00A68081D5118884778
:103940000146A142F8D110BD2C0000004C0000003F
:103950004EF68851CEF20001086840F4700008600D
:10396000BFF34F8FBFF36F8F4FF00070E1EE100A7F
:103970007047000049FFFFFF6003000008040020BB
:103980000000000079FFFFFF080000009000000029
:10399000000000200000000000F00BF8002801D01B
:1039A000FFF7C2FF0020C046C046FFF73FF900F016
:1039B00002F80120704700F001B8000007463846C1
:1039C00000F002F8FBE7000080B5C046C046024A9E
:1039D00011001820ABBEFBE72600020019360008D4
:1039E0003D3600086136000897360008CD360008DD
:1039F0000000000001020304010203040607080995
:103A000001488047014800470D380008113A000876
:103A1000C046C046FFF79CFFFFF7BEFF0024F4003E
:103A200001000000FFF7FEBFFFF7FEBFFFF7FEBF7C
:103A3000FFF7FEBFFFF7FEBFFFF7FEBFFFF7FEBFBA
:103A4000FFF7FEBFFFF7FEBFFFF7FEBFFFF7FEBFAA
:103A5000FFF7FEBFFFF7FEBFFFF7FEBFFFF7FEBF9A
:103A6000FFF7FEBFFFF7FEBFFFF7FEBFFFF7FEBF8A
:103A7000FFF7FEBFFFF7FEBFFFF7FEBFFFF7FEBF7A
:103A8000FFF7FEBFFFF7FEBFFFF7FEBFFFF7FEBF6A
:103A9000FFF7FEBFFFF7FEBFFFF7FEBFFFF7FEBF5A
:103AA000FFF7FEBFFFF7FEBFFFF7FEBFFFF7FEBF4A
:103AB000FFF7FEBFFFF7FEBFFFF7FEBFFFF7FEBF3A
:103AC000FFF7FEBFFFF7FEBFFFF7FEBFFFF7FEBF2A
:103AD000FFF7FEBFFFF7FEBFFFF7FEBFFFF7FEBF1A
:103AE000FFF7FEBFFFF7FEBFFFF7FEBFFFF7FEBF0A
:103AF000FFF7FEBFFFF7FEBFFFF7FEBFFFF7FEBFFA
:103B0000FFF7FEBFFFF7FEBFFFF7FEBFFFF7FEBFE9
:103B1000FFF7FEBFFFF7FEBFFFF7FEBFFFF7FEBFD9
:103B2000FFF7FEBFFFF7FEBFFFF7FEBFFFF7FEBFC9
:103B3000FFF7FEBFFFF7FEBFFFF7FEBFFFF7FEBFB9
:103B4000FFF7FEBFFFF7FEBFFFF7FEBFFFF7FEBFA9
:103B5000FFF7FEBFFFF7FEBFFFF7FEBFFFF7FEBF99
:0C3B6000FFF7FEBFFFF7FEBFFFF7FEBF40
:0400000508003A11A4
:00000001FF
